{
  "_format": "hh-sol-artifact-1",
  "contractName": "UniversalTokenRouter",
  "sourceName": "contracts/UniversalTokenRouter.sol",
  "abi": [
    {
      "inputs": [
        {
          "internalType": "address",
          "name": "pauser",
          "type": "address"
        }
      ],
      "stateMutability": "nonpayable",
      "type": "constructor"
    },
    {
      "anonymous": false,
      "inputs": [],
      "name": "Pause",
      "type": "event"
    },
    {
      "anonymous": false,
      "inputs": [],
      "name": "Unpause",
      "type": "event"
    },
    {
      "inputs": [],
      "name": "PAUSED_SLOT",
      "outputs": [
        {
          "internalType": "bytes32",
          "name": "",
          "type": "bytes32"
        }
      ],
      "stateMutability": "view",
      "type": "function"
    },
    {
      "inputs": [],
      "name": "PAUSER",
      "outputs": [
        {
          "internalType": "address",
          "name": "",
          "type": "address"
        }
      ],
      "stateMutability": "view",
      "type": "function"
    },
    {
      "inputs": [
        {
          "internalType": "bytes",
          "name": "payment",
          "type": "bytes"
        },
        {
          "internalType": "uint256",
          "name": "amount",
          "type": "uint256"
        }
      ],
      "name": "discard",
      "outputs": [],
      "stateMutability": "nonpayable",
      "type": "function"
    },
    {
      "inputs": [
        {
          "components": [
            {
              "internalType": "address",
              "name": "recipient",
              "type": "address"
            },
            {
              "internalType": "uint256",
              "name": "eip",
              "type": "uint256"
            },
            {
              "internalType": "address",
              "name": "token",
              "type": "address"
            },
            {
              "internalType": "uint256",
              "name": "id",
              "type": "uint256"
            },
            {
              "internalType": "uint256",
              "name": "amountOutMin",
              "type": "uint256"
            }
          ],
          "internalType": "struct Output[]",
          "name": "outputs",
          "type": "tuple[]"
        },
        {
          "components": [
            {
              "components": [
                {
                  "internalType": "uint256",
                  "name": "mode",
                  "type": "uint256"
                },
                {
                  "internalType": "address",
                  "name": "recipient",
                  "type": "address"
                },
                {
                  "internalType": "uint256",
                  "name": "eip",
                  "type": "uint256"
                },
                {
                  "internalType": "address",
                  "name": "token",
                  "type": "address"
                },
                {
                  "internalType": "uint256",
                  "name": "id",
                  "type": "uint256"
                },
                {
                  "internalType": "uint256",
                  "name": "amountIn",
                  "type": "uint256"
                }
              ],
              "internalType": "struct Input[]",
              "name": "inputs",
              "type": "tuple[]"
            },
            {
              "internalType": "address",
              "name": "code",
              "type": "address"
            },
            {
              "internalType": "bytes",
              "name": "data",
              "type": "bytes"
            }
          ],
          "internalType": "struct Action[]",
          "name": "actions",
          "type": "tuple[]"
        }
      ],
      "name": "exec",
      "outputs": [
        {
          "internalType": "uint256[]",
          "name": "amountOuts",
          "type": "uint256[]"
        },
        {
          "internalType": "uint256",
          "name": "gasLeft",
          "type": "uint256"
        }
      ],
      "stateMutability": "payable",
      "type": "function"
    },
    {
      "inputs": [],
      "name": "pause",
      "outputs": [],
      "stateMutability": "payable",
      "type": "function"
    },
    {
      "inputs": [],
      "name": "paused",
      "outputs": [
        {
          "internalType": "bool",
          "name": "",
          "type": "bool"
        }
      ],
      "stateMutability": "view",
      "type": "function"
    },
    {
      "inputs": [
        {
          "internalType": "bytes",
          "name": "payment",
          "type": "bytes"
        },
        {
          "internalType": "uint256",
          "name": "amount",
          "type": "uint256"
        }
      ],
      "name": "pay",
      "outputs": [],
      "stateMutability": "nonpayable",
      "type": "function"
    },
    {
      "inputs": [
        {
          "internalType": "bytes4",
          "name": "interfaceId",
          "type": "bytes4"
        }
      ],
      "name": "supportsInterface",
      "outputs": [
        {
          "internalType": "bool",
          "name": "",
          "type": "bool"
        }
      ],
      "stateMutability": "view",
      "type": "function"
    },
    {
      "inputs": [],
      "name": "unpause",
      "outputs": [],
      "stateMutability": "payable",
      "type": "function"
    }
  ],
  "bytecode": "0x60a060405234801561000f575f5ffd5b5060405161219338038061219383398101604081905261002e9161003f565b6001600160a01b031660805261006c565b5f6020828403121561004f575f5ffd5b81516001600160a01b0381168114610065575f5ffd5b9392505050565b6080516120f36100a05f395f818161018101528181610284015281816103300152818161041b0152610c7501526120f35ff3fe608060405260043610610093575f3560e01c80637fbf7b6a11610066578063c175dd371161004c578063c175dd3714610151578063d9dc869414610170578063f02c9eab146101c8575f5ffd5b80637fbf7b6a146101085780638456cb5914610149575f5ffd5b806301ffc9a7146100975780633f4ba83a146100cb5780635c975abb146100d5578063715ef7f9146100e9575b5f5ffd5b3480156100a2575f5ffd5b506100b66100b136600461192e565b6101e9565b60405190151581526020015b60405180910390f35b6100d3610281565b005b3480156100e0575f5ffd5b506100b66103c6565b3480156100f4575f5ffd5b506100d3610103366004611ae2565b6103d4565b348015610113575f5ffd5b5061013b7f8566ab18c01df379675038cfc8d57b678d9715e3c6fe0a09469b538efa47e65c81565b6040519081526020016100c2565b6100d3610418565b34801561015c575f5ffd5b506100d361016b366004611ae2565b610594565b34801561017b575f5ffd5b506101a37f000000000000000000000000000000000000000000000000000000000000000081565b60405173ffffffffffffffffffffffffffffffffffffffff90911681526020016100c2565b6101db6101d6366004611d57565b610612565b6040516100c2929190611e68565b5f7fffffffff0000000000000000000000000000000000000000000000000000000082167f4007b46500000000000000000000000000000000000000000000000000000000148061027b57507f01ffc9a7000000000000000000000000000000000000000000000000000000007fffffffff000000000000000000000000000000000000000000000000000000008316145b92915050565b337f000000000000000000000000000000000000000000000000000000000000000073ffffffffffffffffffffffffffffffffffffffff1614610325576040517f08c379a000000000000000000000000000000000000000000000000000000000815260206004820152601160248201527f5a42503a20554e415554484f52495a454400000000000000000000000000000060448201526064015b60405180910390fd5b4715610355576103557f000000000000000000000000000000000000000000000000000000000000000047610ca1565b7f8566ab18c01df379675038cfc8d57b678d9715e3c6fe0a09469b538efa47e65c80547fffffffffffffffffffffffffffffffffffffffffffffffffffffffffffffff001690556040517f7805862f689e2f13df9f062ff482ad3ad112aca9e0847911ed832e158c525b33905f90a1565b5f6103cf610dac565b905090565b6103de8282610594565b5f5f5f5f5f868060200190518101906103f79190611eb4565b9450945094509450945061040f85858585858b610de0565b50505050505050565b337f000000000000000000000000000000000000000000000000000000000000000073ffffffffffffffffffffffffffffffffffffffff16146104b7576040517f08c379a000000000000000000000000000000000000000000000000000000000815260206004820152601160248201527f5a42503a20554e415554484f52495a4544000000000000000000000000000000604482015260640161031c565b5f4711610520576040517f08c379a000000000000000000000000000000000000000000000000000000000815260206004820152600f60248201527f5a42503a204e4545445f56414c55450000000000000000000000000000000000604482015260640161031c565b7f8566ab18c01df379675038cfc8d57b678d9715e3c6fe0a09469b538efa47e65c80547fffffffffffffffffffffffffffffffffffffffffffffffffffffffffffffff001660011790556040517f6985a02210a168e66602d3235cb6db0e70f92b3ba4d376a33c0f3d9434bff625905f90a1565b81516020830120805c82811015610607576040517f08c379a000000000000000000000000000000000000000000000000000000000815260206004820152601960248201527f5554523a20494e53554646494349454e545f5041594d454e5400000000000000604482015260640161031c565b828103825d50505050565b60605f61061d610dac565b15610684576040517f08c379a000000000000000000000000000000000000000000000000000000000815260206004820152600b60248201527f5a42503a20504155534544000000000000000000000000000000000000000000604482015260640161031c565b835167ffffffffffffffff81111561069e5761069e61196d565b6040519080825280602002602001820160405280156106c7578160200160208202803683370190505b5091505f5b84518110156107a4575f8582815181106106e8576106e8611f11565b602002602001015190505f6106fc82610f7d565b6080830151909150810181811015610770576040517f08c379a000000000000000000000000000000000000000000000000000000000815260206004820152601c60248201527f5554523a204f55545055545f42414c414e43455f4f564552464c4f5700000000604482015260640161031c565b826080015186858151811061078757610787611f11565b6020908102919091010152608090920191909152506001016106cc565b505f5b8351811015610b7d575f8482815181106107c3576107c3611f11565b602002602001015190505f5f5f90505b825151811015610947575f835f015182815181106107f3576107f3611f11565b602002602001015190505f815f0151905060028103610818578160a00151935061093d565b806108ac575f33836020015184604001518560600151866080015160405160200161088295949392919073ffffffffffffffffffffffffffffffffffffffff9586168152938516602085015260408401929092529092166060820152608081019190915260a00190565b6040516020818303038152906040528051906020012090505f8360a00151905080825d505061093d565b600181036108db576108d63383602001518460400151856060015186608001518760a00151610de0565b61093d565b6040517f08c379a000000000000000000000000000000000000000000000000000000000815260206004820152601160248201527f5554523a20494e56414c49445f4d4f4445000000000000000000000000000000604482015260640161031c565b50506001016107d3565b50602082015173ffffffffffffffffffffffffffffffffffffffff1615158061097457505f826040015151115b8061097e57505f81115b15610aae576109908260200151611224565b806109c5575060208201516109c5907f61206120000000000000000000000000000000000000000000000000000000006113f2565b6109d2836020015161140d565b6040516020016109e29190611f55565b60405160208183030381529060405290610a29576040517f08c379a000000000000000000000000000000000000000000000000000000000815260040161031c9190611fac565b505f5f836020015173ffffffffffffffffffffffffffffffffffffffff16838560400151604051610a5a9190611fff565b5f6040518083038185875af1925050503d805f8114610a94576040519150601f19603f3d011682016040523d82523d5f602084013e610a99565b606091505b509150915081610aab57805160208201fd5b50505b5f5b825151811015610b6f575f835f01518281518110610ad057610ad0611f11565b602002602001015190505f815f015103610b66575f338260200151836040015184606001518560800151604051602001610b4995949392919073ffffffffffffffffffffffffffffffffffffffff9586168152938516602085015260408401929092529092166060820152608081019190915260a00190565b6040516020818303038152906040528051906020012090505f815d505b50600101610ab0565b5050508060010190506107a7565b50478015610b8f57610b8f3382610ca1565b5f5b8551811015610c65575f868281518110610bad57610bad611f11565b602002602001015190505f610bc182610f7d565b90508160800151811015610c31576040517f08c379a000000000000000000000000000000000000000000000000000000000815260206004820152601f60248201527f5554523a20494e53554646494349454e545f4f55545055545f414d4f554e5400604482015260640161031c565b81608001518103868481518110610c4a57610c4a611f11565b60209081029190910101805190910190525050600101610b91565b505a9150504715610c9a57610c9a7f000000000000000000000000000000000000000000000000000000000000000047610ca1565b9250929050565b604080515f8082526020820190925273ffffffffffffffffffffffffffffffffffffffff8416908390604051610cd79190611fff565b5f6040518083038185875af1925050503d805f8114610d11576040519150601f19603f3d011682016040523d82523d5f602084013e610d16565b606091505b5050905080610da7576040517f08c379a000000000000000000000000000000000000000000000000000000000815260206004820152603460248201527f5472616e7366657248656c7065723a3a736166655472616e736665724554483a60448201527f20455448207472616e73666572206661696c6564000000000000000000000000606482015260840161031c565b505050565b5f34471180156103cf5750507f8566ab18c01df379675038cfc8d57b678d9715e3c6fe0a09469b538efa47e65c5460ff1690565b83601403610df957610df483878784611430565b610f75565b8361048303610ea7576040517ff242432a00000000000000000000000000000000000000000000000000000000815273ffffffffffffffffffffffffffffffffffffffff87811660048301528681166024830152604482018490526064820183905260a060848301525f60a483015284169063f242432a9060c4015b5f604051808303815f87803b158015610e8c575f5ffd5b505af1158015610e9e573d5f5f3e3d5ffd5b50505050610f75565b836102d103610f13576040517f42842e0e00000000000000000000000000000000000000000000000000000000815273ffffffffffffffffffffffffffffffffffffffff87811660048301528681166024830152604482018490528416906342842e0e90606401610e75565b6040517f08c379a000000000000000000000000000000000000000000000000000000000815260206004820152601060248201527f5554523a20494e56414c49445f45495000000000000000000000000000000000604482015260640161031c565b505050505050565b60208101515f90601481900361102a57604083810151845191517f70a0823100000000000000000000000000000000000000000000000000000000815273ffffffffffffffffffffffffffffffffffffffff92831660048201529116906370a08231906024015b602060405180830381865afa158015610fff573d5f5f3e3d5ffd5b505050506040513d601f19601f82011682018060405250810190611023919061200a565b9392505050565b8061048303611098576040838101518451606086015192517efdd58e00000000000000000000000000000000000000000000000000000000815273ffffffffffffffffffffffffffffffffffffffff91821660048201526024810193909352169062fdd58e90604401610fe4565b806102d1036112025760608301517f0549972b314bb4225e5b334d0650d563c4e907124dcce9f2eae8c8b2d3d9d30d0161112757604083810151845191517f70a0823100000000000000000000000000000000000000000000000000000000815273ffffffffffffffffffffffffffffffffffffffff92831660048201529116906370a0823190602401610fe4565b826040015173ffffffffffffffffffffffffffffffffffffffff16636352211e84606001516040518263ffffffff1660e01b815260040161116a91815260200190565b602060405180830381865afa9250505080156111c1575060408051601f3d9081017fffffffffffffffffffffffffffffffffffffffffffffffffffffffffffffffe01682019092526111be91810190612021565b60015b6111cd57505f92915050565b835173ffffffffffffffffffffffffffffffffffffffff8281169116146111f4575f6111f7565b60015b60ff16949350505050565b80610f135750505173ffffffffffffffffffffffffffffffffffffffff163190565b6040515f6024820181905260448201819052908190606401604080517fffffffffffffffffffffffffffffffffffffffffffffffffffffffffffffffe08184030181529181526020820180517bffffffffffffffffffffffffffffffffffffffffffffffffffffffff167fdd62ed3e00000000000000000000000000000000000000000000000000000000179052519091505f90819073ffffffffffffffffffffffffffffffffffffffff8616906112dd908590611fff565b5f60405180830381855afa9150503d805f8114611315576040519150601f19603f3d011682016040523d82523d5f602084013e61131a565b606091505b5091509150811580156113e9575060405160206024820152601360448201527f54484953204953204e4f54204120544f4b454e000000000000000000000000006064820152608401604080517fffffffffffffffffffffffffffffffffffffffffffffffffffffffffffffffe0818403018152919052602080820180517bffffffffffffffffffffffffffffffffffffffffffffffffffffffff167f08c379a0000000000000000000000000000000000000000000000000000000001781529151909120825191830191909120145b95945050505050565b5f6113fc836115c2565b801561102357506110238383611625565b606061027b73ffffffffffffffffffffffffffffffffffffffff831660146116f1565b6040805173ffffffffffffffffffffffffffffffffffffffff85811660248301528481166044830152606480830185905283518084039091018152608490920183526020820180517bffffffffffffffffffffffffffffffffffffffffffffffffffffffff167f23b872dd0000000000000000000000000000000000000000000000000000000017905291515f928392908816916114ce9190611fff565b5f604051808303815f865af19150503d805f8114611507576040519150601f19603f3d011682016040523d82523d5f602084013e61150c565b606091505b5091509150818015611536575080511580611536575080806020019051810190611536919061203c565b610f75576040517f08c379a000000000000000000000000000000000000000000000000000000000815260206004820152603160248201527f5472616e7366657248656c7065723a3a7472616e7366657246726f6d3a20747260448201527f616e7366657246726f6d206661696c6564000000000000000000000000000000606482015260840161031c565b5f6115ed827f01ffc9a700000000000000000000000000000000000000000000000000000000611625565b801561027b575061161e827fffffffff00000000000000000000000000000000000000000000000000000000611625565b1592915050565b604080517fffffffff000000000000000000000000000000000000000000000000000000008316602480830191909152825180830390910181526044909101909152602080820180517bffffffffffffffffffffffffffffffffffffffffffffffffffffffff167f01ffc9a70000000000000000000000000000000000000000000000000000000017815282515f9392849283928392918391908a617530fa92503d91505f5190508280156116db575060208210155b80156116e657505f81115b979650505050505050565b60605f6116ff836002612088565b61170a90600261209f565b67ffffffffffffffff8111156117225761172261196d565b6040519080825280601f01601f19166020018201604052801561174c576020820181803683370190505b5090507f3000000000000000000000000000000000000000000000000000000000000000815f8151811061178257611782611f11565b60200101907effffffffffffffffffffffffffffffffffffffffffffffffffffffffffffff191690815f1a9053507f7800000000000000000000000000000000000000000000000000000000000000816001815181106117e4576117e4611f11565b60200101907effffffffffffffffffffffffffffffffffffffffffffffffffffffffffffff191690815f1a9053505f61181e846002612088565b61182990600161209f565b90505b60018111156118c5577f303132333435363738396162636465660000000000000000000000000000000085600f166010811061186a5761186a611f11565b1a60f81b82828151811061188057611880611f11565b60200101907effffffffffffffffffffffffffffffffffffffffffffffffffffffffffffff191690815f1a90535060049490941c936118be816120b2565b905061182c565b508315611023576040517f08c379a000000000000000000000000000000000000000000000000000000000815260206004820181905260248201527f537472696e67733a20686578206c656e67746820696e73756666696369656e74604482015260640161031c565b5f6020828403121561193e575f5ffd5b81357fffffffff0000000000000000000000000000000000000000000000000000000081168114611023575f5ffd5b7f4e487b71000000000000000000000000000000000000000000000000000000005f52604160045260245ffd5b6040516060810167ffffffffffffffff811182821017156119bd576119bd61196d565b60405290565b60405160c0810167ffffffffffffffff811182821017156119bd576119bd61196d565b60405160a0810167ffffffffffffffff811182821017156119bd576119bd61196d565b604051601f82017fffffffffffffffffffffffffffffffffffffffffffffffffffffffffffffffe016810167ffffffffffffffff81118282101715611a5057611a5061196d565b604052919050565b5f82601f830112611a67575f5ffd5b813567ffffffffffffffff811115611a8157611a8161196d565b611ab260207fffffffffffffffffffffffffffffffffffffffffffffffffffffffffffffffe0601f84011601611a09565b818152846020838601011115611ac6575f5ffd5b816020850160208301375f918101602001919091529392505050565b5f5f60408385031215611af3575f5ffd5b823567ffffffffffffffff811115611b09575f5ffd5b611b1585828601611a58565b95602094909401359450505050565b5f67ffffffffffffffff821115611b3d57611b3d61196d565b5060051b60200190565b73ffffffffffffffffffffffffffffffffffffffff81168114611b68575f5ffd5b50565b8035611b7681611b47565b919050565b5f82601f830112611b8a575f5ffd5b8135611b9d611b9882611b24565b611a09565b8082825260208201915060208360051b860101925085831115611bbe575f5ffd5b602085015b83811015611d4d57803567ffffffffffffffff811115611be1575f5ffd5b860160608189037fffffffffffffffffffffffffffffffffffffffffffffffffffffffffffffffe0011215611c14575f5ffd5b611c1c61199a565b602082013567ffffffffffffffff811115611c35575f5ffd5b82016020810190603f018a13611c49575f5ffd5b8035611c57611b9882611b24565b80828252602082019150602060c0840285010192508c831115611c78575f5ffd5b6020840193505b82841015611cf95760c0848e031215611c96575f5ffd5b611c9e6119c3565b843581526020850135611cb081611b47565b6020820152604085810135908201526060850135611ccd81611b47565b60608201526080858101359082015260a08086013590820152825260c090930192602090910190611c7f565b845250611d0b91505060408301611b6b565b6020820152606082013567ffffffffffffffff811115611d29575f5ffd5b611d388a602083860101611a58565b60408301525084525060209283019201611bc3565b5095945050505050565b5f5f60408385031215611d68575f5ffd5b823567ffffffffffffffff811115611d7e575f5ffd5b8301601f81018513611d8e575f5ffd5b8035611d9c611b9882611b24565b80828252602082019150602060a08402850101925087831115611dbd575f5ffd5b6020840193505b82841015611e345760a08489031215611ddb575f5ffd5b611de36119e6565b8435611dee81611b47565b8152602085810135908201526040850135611e0881611b47565b60408201526060858101359082015260808086013590820152825260a090930192602090910190611dc4565b9450505050602083013567ffffffffffffffff811115611e52575f5ffd5b611e5e85828601611b7b565b9150509250929050565b604080825283519082018190525f9060208501906060840190835b81811015611ea1578351835260209384019390920191600101611e83565b5050602093909301939093525092915050565b5f5f5f5f5f60a08688031215611ec8575f5ffd5b8551611ed381611b47565b6020870151909550611ee481611b47565b604087015160608801519195509350611efc81611b47565b60809690960151949793965091949392915050565b7f4e487b71000000000000000000000000000000000000000000000000000000005f52603260045260245ffd5b5f81518060208401855e5f93019283525090919050565b7f5554523a204e4f545f43414c4c41424c4500000000000000000000000000000081527f203e3e200000000000000000000000000000000000000000000000000000000060118201525f6110236015830184611f3e565b602081525f82518060208401528060208501604085015e5f6040828501015260407fffffffffffffffffffffffffffffffffffffffffffffffffffffffffffffffe0601f83011684010191505092915050565b5f6110238284611f3e565b5f6020828403121561201a575f5ffd5b5051919050565b5f60208284031215612031575f5ffd5b815161102381611b47565b5f6020828403121561204c575f5ffd5b81518015158114611023575f5ffd5b7f4e487b71000000000000000000000000000000000000000000000000000000005f52601160045260245ffd5b808202811582820484141761027b5761027b61205b565b8082018082111561027b5761027b61205b565b5f816120c0576120c061205b565b507fffffffffffffffffffffffffffffffffffffffffffffffffffffffffffffffff019056fea164736f6c634300081c000a",
  "linkReferences": {},
  "deployedLinkReferences": {}
}