{
  "_format": "hh-sol-artifact-1",
  "contractName": "View",
  "sourceName": "contracts/support/View.sol",
  "abi": [
    {
      "inputs": [
        {
          "internalType": "address",
          "name": "token",
          "type": "address"
        },
        {
          "internalType": "address",
          "name": "feeTo",
          "type": "address"
        },
        {
          "internalType": "uint256",
          "name": "feeRate",
          "type": "uint256"
        }
      ],
      "stateMutability": "nonpayable",
      "type": "constructor"
    },
    {
      "inputs": [],
      "name": "ReentrancyGuardReentrantCall",
      "type": "error"
    },
    {
      "inputs": [],
      "name": "T",
      "type": "error"
    },
    {
      "anonymous": false,
      "inputs": [
        {
          "indexed": true,
          "internalType": "address",
          "name": "payer",
          "type": "address"
        },
        {
          "indexed": true,
          "internalType": "address",
          "name": "recipient",
          "type": "address"
        },
        {
          "indexed": true,
          "internalType": "address",
          "name": "index",
          "type": "address"
        },
        {
          "indexed": false,
          "internalType": "uint256",
          "name": "id",
          "type": "uint256"
        },
        {
          "indexed": false,
          "internalType": "uint256",
          "name": "amount",
          "type": "uint256"
        },
        {
          "indexed": false,
          "internalType": "uint256",
          "name": "maturity",
          "type": "uint256"
        },
        {
          "indexed": false,
          "internalType": "uint256",
          "name": "price",
          "type": "uint256"
        },
        {
          "indexed": false,
          "internalType": "uint256",
          "name": "valueR",
          "type": "uint256"
        }
      ],
      "name": "Position",
      "type": "event"
    },
    {
      "inputs": [
        {
          "internalType": "address",
          "name": "",
          "type": "address"
        },
        {
          "internalType": "address",
          "name": "",
          "type": "address"
        }
      ],
      "name": "allowance",
      "outputs": [],
      "stateMutability": "pure",
      "type": "function"
    },
    {
      "inputs": [
        {
          "internalType": "address",
          "name": "TOKEN",
          "type": "address"
        },
        {
          "internalType": "uint256",
          "name": "FEE_RATE",
          "type": "uint256"
        },
        {
          "internalType": "uint256",
          "name": "twap",
          "type": "uint256"
        },
        {
          "internalType": "uint256",
          "name": "spot",
          "type": "uint256"
        }
      ],
      "name": "compute",
      "outputs": [
        {
          "components": [
            {
              "components": [
                {
                  "internalType": "address",
                  "name": "FETCHER",
                  "type": "address"
                },
                {
                  "internalType": "bytes32",
                  "name": "ORACLE",
                  "type": "bytes32"
                },
                {
                  "internalType": "address",
                  "name": "TOKEN_R",
                  "type": "address"
                },
                {
                  "internalType": "uint256",
                  "name": "K",
                  "type": "uint256"
                },
                {
                  "internalType": "uint256",
                  "name": "MARK",
                  "type": "uint256"
                },
                {
                  "internalType": "uint256",
                  "name": "INTEREST_HL",
                  "type": "uint256"
                },
                {
                  "internalType": "uint256",
                  "name": "PREMIUM_HL",
                  "type": "uint256"
                },
                {
                  "internalType": "uint256",
                  "name": "MATURITY",
                  "type": "uint256"
                },
                {
                  "internalType": "uint256",
                  "name": "MATURITY_VEST",
                  "type": "uint256"
                },
                {
                  "internalType": "uint256",
                  "name": "MATURITY_RATE",
                  "type": "uint256"
                },
                {
                  "internalType": "uint256",
                  "name": "OPEN_RATE",
                  "type": "uint256"
                }
              ],
              "internalType": "struct Config",
              "name": "config",
              "type": "tuple"
            },
            {
              "components": [
                {
                  "internalType": "uint256",
                  "name": "R",
                  "type": "uint256"
                },
                {
                  "internalType": "uint256",
                  "name": "a",
                  "type": "uint256"
                },
                {
                  "internalType": "uint256",
                  "name": "b",
                  "type": "uint256"
                }
              ],
              "internalType": "struct State",
              "name": "state",
              "type": "tuple"
            },
            {
              "internalType": "uint256",
              "name": "sA",
              "type": "uint256"
            },
            {
              "internalType": "uint256",
              "name": "sB",
              "type": "uint256"
            },
            {
              "internalType": "uint256",
              "name": "sC",
              "type": "uint256"
            },
            {
              "internalType": "uint256",
              "name": "rA",
              "type": "uint256"
            },
            {
              "internalType": "uint256",
              "name": "rB",
              "type": "uint256"
            },
            {
              "internalType": "uint256",
              "name": "rC",
              "type": "uint256"
            },
            {
              "internalType": "uint256",
              "name": "twap",
              "type": "uint256"
            },
            {
              "internalType": "uint256",
              "name": "spot",
              "type": "uint256"
            }
          ],
          "internalType": "struct View.StateView",
          "name": "stateView",
          "type": "tuple"
        }
      ],
      "stateMutability": "nonpayable",
      "type": "function"
    },
    {
      "inputs": [],
      "name": "ensureStateIntegrity",
      "outputs": [],
      "stateMutability": "view",
      "type": "function"
    },
    {
      "inputs": [
        {
          "internalType": "uint256",
          "name": "ORACLE",
          "type": "uint256"
        }
      ],
      "name": "fetch",
      "outputs": [
        {
          "internalType": "uint256",
          "name": "twap",
          "type": "uint256"
        },
        {
          "internalType": "uint256",
          "name": "spot",
          "type": "uint256"
        }
      ],
      "stateMutability": "view",
      "type": "function"
    },
    {
      "inputs": [],
      "name": "getStates",
      "outputs": [
        {
          "internalType": "uint256",
          "name": "R",
          "type": "uint256"
        },
        {
          "internalType": "uint256",
          "name": "a",
          "type": "uint256"
        },
        {
          "internalType": "uint256",
          "name": "b",
          "type": "uint256"
        },
        {
          "internalType": "uint32",
          "name": "i",
          "type": "uint32"
        },
        {
          "internalType": "uint32",
          "name": "f",
          "type": "uint32"
        }
      ],
      "stateMutability": "view",
      "type": "function"
    },
    {
      "inputs": [
        {
          "components": [
            {
              "internalType": "uint256",
              "name": "R",
              "type": "uint256"
            },
            {
              "internalType": "uint256",
              "name": "a",
              "type": "uint256"
            },
            {
              "internalType": "uint256",
              "name": "b",
              "type": "uint256"
            }
          ],
          "internalType": "struct State",
          "name": "state",
          "type": "tuple"
        },
        {
          "components": [
            {
              "internalType": "address",
              "name": "utr",
              "type": "address"
            },
            {
              "internalType": "bytes",
              "name": "payer",
              "type": "bytes"
            },
            {
              "internalType": "address",
              "name": "recipient",
              "type": "address"
            }
          ],
          "internalType": "struct Payment",
          "name": "payment",
          "type": "tuple"
        }
      ],
      "name": "init",
      "outputs": [],
      "stateMutability": "nonpayable",
      "type": "function"
    },
    {
      "inputs": [
        {
          "internalType": "address",
          "name": "",
          "type": "address"
        },
        {
          "internalType": "address",
          "name": "",
          "type": "address"
        }
      ],
      "name": "isApprovedForAll",
      "outputs": [],
      "stateMutability": "pure",
      "type": "function"
    },
    {
      "inputs": [],
      "name": "loadConfig",
      "outputs": [
        {
          "components": [
            {
              "internalType": "address",
              "name": "FETCHER",
              "type": "address"
            },
            {
              "internalType": "bytes32",
              "name": "ORACLE",
              "type": "bytes32"
            },
            {
              "internalType": "address",
              "name": "TOKEN_R",
              "type": "address"
            },
            {
              "internalType": "uint256",
              "name": "K",
              "type": "uint256"
            },
            {
              "internalType": "uint256",
              "name": "MARK",
              "type": "uint256"
            },
            {
              "internalType": "uint256",
              "name": "INTEREST_HL",
              "type": "uint256"
            },
            {
              "internalType": "uint256",
              "name": "PREMIUM_HL",
              "type": "uint256"
            },
            {
              "internalType": "uint256",
              "name": "MATURITY",
              "type": "uint256"
            },
            {
              "internalType": "uint256",
              "name": "MATURITY_VEST",
              "type": "uint256"
            },
            {
              "internalType": "uint256",
              "name": "MATURITY_RATE",
              "type": "uint256"
            },
            {
              "internalType": "uint256",
              "name": "OPEN_RATE",
              "type": "uint256"
            }
          ],
          "internalType": "struct Config",
          "name": "config",
          "type": "tuple"
        }
      ],
      "stateMutability": "pure",
      "type": "function"
    },
    {
      "inputs": [
        {
          "internalType": "address",
          "name": "",
          "type": "address"
        },
        {
          "internalType": "address",
          "name": "",
          "type": "address"
        },
        {
          "internalType": "uint256[]",
          "name": "",
          "type": "uint256[]"
        },
        {
          "internalType": "uint256[]",
          "name": "",
          "type": "uint256[]"
        },
        {
          "internalType": "bytes",
          "name": "",
          "type": "bytes"
        }
      ],
      "name": "onERC1155BatchReceived",
      "outputs": [
        {
          "internalType": "bytes4",
          "name": "",
          "type": "bytes4"
        }
      ],
      "stateMutability": "nonpayable",
      "type": "function"
    },
    {
      "inputs": [
        {
          "internalType": "address",
          "name": "",
          "type": "address"
        },
        {
          "internalType": "address",
          "name": "",
          "type": "address"
        },
        {
          "internalType": "uint256",
          "name": "",
          "type": "uint256"
        },
        {
          "internalType": "uint256",
          "name": "",
          "type": "uint256"
        },
        {
          "internalType": "bytes",
          "name": "",
          "type": "bytes"
        }
      ],
      "name": "onERC1155Received",
      "outputs": [
        {
          "internalType": "bytes4",
          "name": "",
          "type": "bytes4"
        }
      ],
      "stateMutability": "nonpayable",
      "type": "function"
    },
    {
      "inputs": [
        {
          "internalType": "bytes4",
          "name": "interfaceId",
          "type": "bytes4"
        }
      ],
      "name": "supportsInterface",
      "outputs": [
        {
          "internalType": "bool",
          "name": "",
          "type": "bool"
        }
      ],
      "stateMutability": "view",
      "type": "function"
    },
    {
      "inputs": [
        {
          "components": [
            {
              "internalType": "uint256",
              "name": "sideIn",
              "type": "uint256"
            },
            {
              "internalType": "uint256",
              "name": "sideOut",
              "type": "uint256"
            },
            {
              "internalType": "address",
              "name": "helper",
              "type": "address"
            },
            {
              "internalType": "bytes",
              "name": "payload",
              "type": "bytes"
            }
          ],
          "internalType": "struct Param",
          "name": "param",
          "type": "tuple"
        },
        {
          "components": [
            {
              "internalType": "address",
              "name": "utr",
              "type": "address"
            },
            {
              "internalType": "bytes",
              "name": "payer",
              "type": "bytes"
            },
            {
              "internalType": "address",
              "name": "recipient",
              "type": "address"
            }
          ],
          "internalType": "struct Payment",
          "name": "payment",
          "type": "tuple"
        }
      ],
      "name": "swap",
      "outputs": [
        {
          "internalType": "uint256",
          "name": "amountIn",
          "type": "uint256"
        },
        {
          "internalType": "uint256",
          "name": "amountOut",
          "type": "uint256"
        },
        {
          "internalType": "uint256",
          "name": "price",
          "type": "uint256"
        }
      ],
      "stateMutability": "nonpayable",
      "type": "function"
    }
  ],
  "bytecode": "0x60e060405234801561000f575f5ffd5b50604051615b57380380615b5783398101604081905261002e9161011f565b828282826001600160a01b03811661008d5760405162461bcd60e51b815260206004820152601660248201527f506f6f6c426173653a205a45524f5f414444524553530000000000000000000060448201526064015b60405180910390fd5b6001600160a01b0390811660805282166100e95760405162461bcd60e51b815260206004820152601760248201527f506f6f6c4c6f6769633a205a45524f5f414444524553530000000000000000006044820152606401610084565b6001600160a01b0390911660a05260c0525061015892505050565b80516001600160a01b038116811461011a575f5ffd5b919050565b5f5f5f60608486031215610131575f5ffd5b61013a84610104565b925061014860208501610104565b9150604084015190509250925092565b60805160a05160c05161597a6101dd5f395f818161237901526123a001525f6123e901525f818161075b0152818161081c015281816108d9015281816109f701528181610b1701528181610bd401528181610c7b01528181610d3801528181610efd015281816117ca0152818161189c0152818161196e0152613e0c015261597a5ff3fe608060405234801561000f575f5ffd5b50600436106100cf575f3560e01c8063dc1a6f331161007d578063eb7e50dd11610058578063eb7e50dd14610230578063ed57620414610238578063f23a6e6114610258575f5ffd5b8063dc1a6f3314610208578063dd62ed3e1461021d578063e985e9c51461021d575f5ffd5b80637a33e3b0116100ad5780637a33e3b01461013e578063bc197c8114610166578063d8ab8274146101cf575f5ffd5b806301ffc9a7146100d357806322d65951146100fb5780632b2f291314610110575b5f5ffd5b6100e66100e1366004614bd3565b610290565b60405190151581526020015b60405180910390f35b610103610328565b6040516100f29190614cb8565b61012361011e366004614ecc565b6103e9565b604080519384526020840192909252908201526060016100f2565b61015161014c366004614f8a565b610ff7565b604080519283526020830191909152016100f2565b61019e61017436600461502e565b7fbc197c810000000000000000000000000000000000000000000000000000000095945050505050565b6040517fffffffff0000000000000000000000000000000000000000000000000000000090911681526020016100f2565b6101d76110d3565b6040805195865260208601949094529284019190915263ffffffff908116606084015216608082015260a0016100f2565b61021b6102163660046150e1565b6111bd565b005b61021b61022b36600461513c565b611c5e565b61021b611cc0565b61024b610246366004615173565b611d4b565b6040516100f291906151ab565b61019e61026636600461523f565b7ff23a6e610000000000000000000000000000000000000000000000000000000095945050505050565b5f7fffffffff0000000000000000000000000000000000000000000000000000000082167f4e2312e000000000000000000000000000000000000000000000000000000000148061032257507f01ffc9a7000000000000000000000000000000000000000000000000000000007fffffffff000000000000000000000000000000000000000000000000000000008316145b92915050565b6103a66040518061016001604052805f73ffffffffffffffffffffffffffffffffffffffff1681526020015f81526020015f73ffffffffffffffffffffffffffffffffffffffff1681526020015f81526020015f81526020015f81526020015f81526020015f81526020015f81526020015f81526020015f81525090565b6060602036038035808203915060405192506020810183016040528083526020830181838237505050808060200190518101906103e391906152a7565b91505090565b5f5f5f6103f4611f01565b5f6103fd610328565b90505f61040a8288611f87565b8051602082015160408301518a5192985090965094509091505f9061070c57602087015151156106f55761044287602001515f612bf2565b90508660200151516014036104c957604080840151815173ffffffffffffffffffffffffffffffffffffffff8085166020830152309382019390935260146060820152911660808201525f60a082015260c001604080517fffffffffffffffffffffffffffffffffffffffffffffffffffffffffffffffe081840301815291905260208801525b60408084015190517f70a082310000000000000000000000000000000000000000000000000000000081523060048201525f9173ffffffffffffffffffffffffffffffffffffffff16906370a0823190602401602060405180830381865afa158015610537573d5f5f3e3d5ffd5b505050506040513d601f19601f8201168201806040525081019061055b9190615344565b6105659088615388565b885160208a01516040517f715ef7f900000000000000000000000000000000000000000000000000000000815292935073ffffffffffffffffffffffffffffffffffffffff9091169163715ef7f9916105c2918b906004016153e7565b5f604051808303815f87803b1580156105d9575f5ffd5b505af11580156105eb573d5f5f3e3d5ffd5b50505060408086015190517f70a0823100000000000000000000000000000000000000000000000000000000815230600482015273ffffffffffffffffffffffffffffffffffffffff90911691506370a0823190602401602060405180830381865afa15801561065d573d5f5f3e3d5ffd5b505050506040513d601f19601f820116820180604052508101906106819190615344565b8111156106ef576040517f08c379a000000000000000000000000000000000000000000000000000000000815260206004820152601e60248201527f506f6f6c426173653a20494e53554646494349454e545f5041594d454e54000060448201526064015b60405180910390fd5b50610e42565b6107058360400151333089612c81565b5033610e42565b87515f9060a01b301790505f5f8960200151511115610c46576040517efdd58e000000000000000000000000000000000000000000000000000000008152306004820152602481018390525f907f000000000000000000000000000000000000000000000000000000000000000073ffffffffffffffffffffffffffffffffffffffff169062fdd58e90604401602060405180830381865afa1580156107b4573d5f5f3e3d5ffd5b505050506040513d601f19601f820116820180604052508101906107d89190615344565b90508015610889576040517ff5298aca00000000000000000000000000000000000000000000000000000000815230600482015260248101849052604481018290527f000000000000000000000000000000000000000000000000000000000000000073ffffffffffffffffffffffffffffffffffffffff169063f5298aca906064015f604051808303815f87803b158015610872575f5ffd5b505af1158015610884573d5f5f3e3d5ffd5b505050505b6108978a602001515f612bf2565b935089602001515160140361093e576040805173ffffffffffffffffffffffffffffffffffffffff8681166020830152309282019290925261048360608201527f0000000000000000000000000000000000000000000000000000000000000000909116608082015260a0810184905260c001604080517fffffffffffffffffffffffffffffffffffffffffffffffffffffffffffffffe081840301815291905260208b01525b895160208b01516040517f715ef7f900000000000000000000000000000000000000000000000000000000815273ffffffffffffffffffffffffffffffffffffffff9092169163715ef7f991610998918d906004016153e7565b5f604051808303815f87803b1580156109af575f5ffd5b505af11580156109c1573d5f5f3e3d5ffd5b50506040517efdd58e000000000000000000000000000000000000000000000000000000008152306004820152602481018690527f000000000000000000000000000000000000000000000000000000000000000073ffffffffffffffffffffffffffffffffffffffff16925062fdd58e9150604401602060405180830381865afa158015610a52573d5f5f3e3d5ffd5b505050506040513d601f19601f82011682018060405250810190610a769190615344565b905080891115610ae2576040517f08c379a000000000000000000000000000000000000000000000000000000000815260206004820152601e60248201527f506f6f6c426173653a20494e53554646494349454e545f5041594d454e54000060448201526064016106e6565b6040517fcb263dc6000000000000000000000000000000000000000000000000000000008152306004820152602481018490527f000000000000000000000000000000000000000000000000000000000000000073ffffffffffffffffffffffffffffffffffffffff169063cb263dc690604401602060405180830381865afa158015610b71573d5f5f3e3d5ffd5b505050506040513d601f19601f82011682018060405250810190610b959190615344565b6040517ff5298aca00000000000000000000000000000000000000000000000000000000815230600482015260248101859052604481018390529092507f000000000000000000000000000000000000000000000000000000000000000073ffffffffffffffffffffffffffffffffffffffff169063f5298aca906064015f604051808303815f87803b158015610c2a575f5ffd5b505af1158015610c3c573d5f5f3e3d5ffd5b5050505050610da8565b6040517fcb263dc6000000000000000000000000000000000000000000000000000000008152336004820152602481018390527f000000000000000000000000000000000000000000000000000000000000000073ffffffffffffffffffffffffffffffffffffffff169063cb263dc690604401602060405180830381865afa158015610cd5573d5f5f3e3d5ffd5b505050506040513d601f19601f82011682018060405250810190610cf99190615344565b6040517ff5298aca00000000000000000000000000000000000000000000000000000000815233600482015260248101849052604481018a90529091507f000000000000000000000000000000000000000000000000000000000000000073ffffffffffffffffffffffffffffffffffffffff169063f5298aca906064015f604051808303815f87803b158015610d8e575f5ffd5b505af1158015610da0573d5f5f3e3d5ffd5b505050503392505b5f5f8b6020015114610dba575f610dbc565b875b602080880151604080518781529283018d90528201859052606082018a90526080820183905291925073ffffffffffffffffffffffffffffffffffffffff918216915f91908716907fba5c330f8eb505cee9b4eb08fecf34234a327cfb6f9e480f9d3b4dfae5b23e4d9060a00160405180910390a4610e3c86838a612e1b565b97505050505b60208801515f90610e6557610e608460400151896040015188612ea0565b610fe4565b60208901515f9060a01b301790508460e001514263ffffffff16610e899190615388565b60408a81015190517f3c8cb4ef00000000000000000000000000000000000000000000000000000000815273ffffffffffffffffffffffffffffffffffffffff918216600482015260248101849052604481018a905263ffffffff8316606482015260a060848201525f60a48201529193507f00000000000000000000000000000000000000000000000000000000000000001690633c8cb4ef9060c4015f604051808303815f87803b158015610f3e575f5ffd5b505af1158015610f50573d5f5f3e3d5ffd5b50508b515f9250159050610f64575f610f66565b885b6020808801516040808e015181518781529384018d9052908301879052606083018b90526080830184905292935073ffffffffffffffffffffffffffffffffffffffff90811692811691908716907fba5c330f8eb505cee9b4eb08fecf34234a327cfb6f9e480f9d3b4dfae5b23e4d9060a00160405180910390a450505b50505050610ff0613031565b9250925092565b5f8082816110048261305b565b90505f6110158360c088901c613139565b5090505f611022826133ed565b73ffffffffffffffffffffffffffffffffffffffff169050602083901b9450602081901b95507f800000000000000000000000000000000000000000000000000000000000000087165f036110ca5761109b857fffffffffffffffffffffffffffffffffffffffffffffffffffffffffffffffff615435565b94506110c7867fffffffffffffffffffffffffffffffffffffffffffffffffffffffffffffffff615435565b95505b50505050915091565b5f5f5f5f5f5f6110e1610328565b60408082015190517f70a0823100000000000000000000000000000000000000000000000000000000815230600482015291925073ffffffffffffffffffffffffffffffffffffffff16906370a0823190602401602060405180830381865afa158015611150573d5f5f3e3d5ffd5b505050506040513d601f19601f820116820180604052508101906111749190615344565b5f5460015491987bffffffffffffffffffffffffffffffffffffffffffffffffffffffff64010000000080840482169a50840416975063ffffffff918216965091169350915050565b5f5463ffffffff161561122c576040517f08c379a000000000000000000000000000000000000000000000000000000000815260206004820152601d60248201527f506f6f6c426173653a20414c52454144595f494e495449414c495a454400000060448201526064016106e6565b815160208301516040840151821580159061124657505f82115b801561125157505f81115b6112b7576040517f08c379a000000000000000000000000000000000000000000000000000000000815260206004820152601460248201527f506f6f6c426173653a205a45524f5f504152414d00000000000000000000000060448201526064016106e6565b7bffffffffffffffffffffffffffffffffffffffffffffffffffffffff80831664010000000090810263ffffffff42169081175f90815592841690910217600155611300610328565b90505f5f86602001515111156115cb5760408083015190517f70a082310000000000000000000000000000000000000000000000000000000081523060048201525f9173ffffffffffffffffffffffffffffffffffffffff16906370a0823190602401602060405180830381865afa15801561137e573d5f5f3e3d5ffd5b505050506040513d601f19601f820116820180604052508101906113a29190615344565b6113ac9087615388565b90506113bc87602001515f612bf2565b915086602001515160140361144357604080840151815173ffffffffffffffffffffffffffffffffffffffff8086166020830152309382019390935260146060820152911660808201525f60a082015260c001604080517fffffffffffffffffffffffffffffffffffffffffffffffffffffffffffffffe081840301815291905260208801525b865160208801516040517f715ef7f900000000000000000000000000000000000000000000000000000000815273ffffffffffffffffffffffffffffffffffffffff9092169163715ef7f99161149d918a906004016153e7565b5f604051808303815f87803b1580156114b4575f5ffd5b505af11580156114c6573d5f5f3e3d5ffd5b50505060408085015190517f70a0823100000000000000000000000000000000000000000000000000000000815230600482015273ffffffffffffffffffffffffffffffffffffffff90911691506370a0823190602401602060405180830381865afa158015611538573d5f5f3e3d5ffd5b505050506040513d601f19601f8201168201806040525081019061155c9190615344565b8111156115c5576040517f08c379a000000000000000000000000000000000000000000000000000000000815260206004820152601e60248201527f506f6f6c426173653a20494e53554646494349454e545f5041594d454e54000060448201526064016106e6565b506115de565b6115db8260400151333088612c81565b50335b8151602083015130741000000000000000000000000000000000000000008117927420000000000000000000000000000000000000000082179274300000000000000000000000000000000000000000909217915f9161163d9161374d565b5090505f5f61165561164f8985613810565b8e6138a3565b915091506103e88210156116c5576040517f08c379a000000000000000000000000000000000000000000000000000000000815260206004820152601b60248201527f506f6f6c426173653a204d494e494d554d5f524553455256455f41000000000060448201526064016106e6565b6103e8811015611731576040517f08c379a000000000000000000000000000000000000000000000000000000000815260206004820152601b60248201527f506f6f6c426173653a204d494e494d554d5f524553455256455f42000000000060448201526064016106e6565b5f8161173d848e615448565b6117479190615448565b90506103e88110156117b5576040517f08c379a000000000000000000000000000000000000000000000000000000000815260206004820152601b60248201527f506f6f6c426173653a204d494e494d554d5f524553455256455f43000000000060448201526064016106e6565b5f8960e00151426117c69190615388565b90507f000000000000000000000000000000000000000000000000000000000000000073ffffffffffffffffffffffffffffffffffffffff16633c8cb4ef8f604001518a87856040518563ffffffff1660e01b815260040161186d949392919073ffffffffffffffffffffffffffffffffffffffff9490941684526020840192909252604083015263ffffffff16606082015260a0608082018190525f9082015260c00190565b5f604051808303815f87803b158015611884575f5ffd5b505af1158015611896573d5f5f3e3d5ffd5b505050507f000000000000000000000000000000000000000000000000000000000000000073ffffffffffffffffffffffffffffffffffffffff16633c8cb4ef8f604001518986856040518563ffffffff1660e01b815260040161193f949392919073ffffffffffffffffffffffffffffffffffffffff9490941684526020840192909252604083015263ffffffff16606082015260a0608082018190525f9082015260c00190565b5f604051808303815f87803b158015611956575f5ffd5b505af1158015611968573d5f5f3e3d5ffd5b505050507f000000000000000000000000000000000000000000000000000000000000000073ffffffffffffffffffffffffffffffffffffffff16633c8cb4ef8f604001518885856040518563ffffffff1660e01b8152600401611a11949392919073ffffffffffffffffffffffffffffffffffffffff9490941684526020840192909252604083015263ffffffff16606082015260a0608082018190525f9082015260c00190565b5f604051808303815f87803b158015611a28575f5ffd5b505af1158015611a3a573d5f5f3e3d5ffd5b505050505f8a602001515f1c90508073ffffffffffffffffffffffffffffffffffffffff168f6040015173ffffffffffffffffffffffffffffffffffffffff168b73ffffffffffffffffffffffffffffffffffffffff167fba5c330f8eb505cee9b4eb08fecf34234a327cfb6f9e480f9d3b4dfae5b23e4d8c89878c8c604051611aec959493929190948552602085019390935263ffffffff9190911660408401526060830152608082015260a00190565b60405180910390a48073ffffffffffffffffffffffffffffffffffffffff168f6040015173ffffffffffffffffffffffffffffffffffffffff168b73ffffffffffffffffffffffffffffffffffffffff167fba5c330f8eb505cee9b4eb08fecf34234a327cfb6f9e480f9d3b4dfae5b23e4d8b88878c8b604051611b98959493929190948552602085019390935263ffffffff9190911660408401526060830152608082015260a00190565b60405180910390a48073ffffffffffffffffffffffffffffffffffffffff168f6040015173ffffffffffffffffffffffffffffffffffffffff168b73ffffffffffffffffffffffffffffffffffffffff167fba5c330f8eb505cee9b4eb08fecf34234a327cfb6f9e480f9d3b4dfae5b23e4d8a87878c8a604051611c44959493929190948552602085019390935263ffffffff9190911660408401526060830152608082015260a00190565b60405180910390a450505050505050505050505050505050565b6040517f08c379a000000000000000000000000000000000000000000000000000000000815260206004820152601360248201527f54484953204953204e4f54204120544f4b454e0000000000000000000000000060448201526064016106e6565b7f9b779b17422d0df92223018b32b4d1fa46e071723d6817e2486d003becc55f005c15611d49576040517f08c379a000000000000000000000000000000000000000000000000000000000815260206004820152601960248201527f506f6f6c426173653a2053544154455f494e544547524954590000000000000060448201526064016106e6565b565b611d53614aed565b5f611d5c610328565b90505f6040518060600160405280611d7784604001516138fb565b81525f547bffffffffffffffffffffffffffffffffffffffffffffffffffffffff64010000000091829004811660208401526001549190910416604090910152905084158015611dc5575083155b15611de15781516020830151611ddb919061374d565b90955093505b5f5f611df6611df08589613810565b846138a3565b915091505f5f611e0f611e09878a613810565b866138a3565b915091505f611e248b88885f0151888861398a565b88519197509550909150611e3d908c908990868661398a565b91885293509150611e4e8584613b9f565b60a0890152611e5d8483613b9f565b60c0890152611e9884611e708784615448565b611e7a9190615448565b87518490611e89908790615448565b611e939190615448565b613bae565b60e08901528551811015611eaa578086525b611eb58c6010613bbd565b6040890152611ec58c6020613bbd565b6060890152611ed58c6030613bbd565b608089015250505050610100840195909552610120830193909352815260208101919091529392505050565b7f9b779b17422d0df92223018b32b4d1fa46e071723d6817e2486d003becc55f005c15611f5a576040517f3ee5aeb500000000000000000000000000000000000000000000000000000000815260040160405180910390fd5b611d4960017f9b779b17422d0df92223018b32b4d1fa46e071723d6817e2486d003becc55f005b90613c51565b611fa860405180606001604052805f81526020015f81526020015f81525090565b81516020830151808203612018576040517f08c379a000000000000000000000000000000000000000000000000000000000815260206004820152601460248201527f506f6f6c4c6f6769633a2053414d455f5349444500000000000000000000000060448201526064016106e6565b8115806120255750601082145b806120305750602082145b8061203b5750603082145b6120a1576040517f08c379a000000000000000000000000000000000000000000000000000000000815260206004820152601a60248201527f506f6f6c4c6f6769633a20494e56414c49445f534944455f494e00000000000060448201526064016106e6565b8015806120ae5750601081145b806120b95750602081145b806120c45750603081145b61212a576040517f08c379a000000000000000000000000000000000000000000000000000000000815260206004820152601b60248201527f506f6f6c4c6f6769633a20494e56414c49445f534944455f4f5554000000000060448201526064016106e6565b5f604051806060016040528061214388604001516138fb565b81525f80547bffffffffffffffffffffffffffffffffffffffffffffffffffffffff64010000000091829004811660208501526001549190910416604090920191909152909150808061219889858888613c58565b60408b0152865160a08d01519396509194509250839003829003901561226c575f5463ffffffff908116420316801561226a575f6121da828d60a00151613d4f565b90505f6121f1868368010000000000000000613d7b565b90505f612208868468010000000000000000613d7b565b90508682108061221757508581105b1561226657612227826001613bae565b9650612234816001613bae565b5f80547fffffffffffffffffffffffffffffffffffffffffffffffffffffffff00000000164263ffffffff1617905595505b5050505b505b60c08a015115612377575f8284116122865783830361228a565b8284035b905060018111156123755785516001547fffffffffffffffffffffffffffffffffffffffffffffffffffffffffffffffff9092019163ffffffff9081164203168015612372575f6122e660018f60c00151901c84888a01613d7b565b90505f6122f38383613d4f565b9050600185901c61230e818368010000000000000000613d7b565b808203911461236e578789111561232d57978890039796870196612337565b9788019796879003965b6001805463ffffffff8082168701167fffffffffffffffffffffffffffffffffffffffffffffffffffffffff000000009091161790555b5050505b50505b505b7f000000000000000000000000000000000000000000000000000000000000000015612418575f7f0000000000000000000000000000000000000000000000000000000000000000828486895f0151030303816123d6576123d6615408565b04905080156124165761240e8b604001517f000000000000000000000000000000000000000000000000000000000000000083612ea0565b855181900386525b505b505f886040015173ffffffffffffffffffffffffffffffffffffffff1663dc0192e86040518060800160405280878152602001885f01518152602001868152602001858152508b606001516040518363ffffffff1660e01b815260040161248092919061545b565b606060405180830381865afa15801561249b573d5f5f3e3d5ffd5b505050506040513d601f19601f820116820180604052508101906124bf919061549a565b90507bffffffffffffffffffffffffffffffffffffffffffffffffffffffff80168160200151111561254d576040517f08c379a000000000000000000000000000000000000000000000000000000000815260206004820152601c60248201527f506f6f6c4c6f6769633a205354415445315f4f564552464c4f575f410000000060448201526064016106e6565b60408101517bffffffffffffffffffffffffffffffffffffffffffffffffffffffff10156125d7576040517f08c379a000000000000000000000000000000000000000000000000000000000815260206004820152601c60248201527f506f6f6c4c6f6769633a205354415445315f4f564552464c4f575f420000000060448201526064016106e6565b5f5f6125e386846138a3565b909250905088612678578482101580156125fd5750838110155b612663576040517f08c379a000000000000000000000000000000000000000000000000000000000815260206004820152601b60248201527f506f6f6c4c6f6769633a20494e56414c49445f5354415445315f52000000000060448201526064016106e6565b865183516126719190615448565b8a52612931565b8251875110156126e4576040517f08c379a000000000000000000000000000000000000000000000000000000000815260206004820152601c60248201527f506f6f6c4c6f6769633a20494e56414c49445f5354415445315f4e520000000060448201526064016106e6565b5f6126ee8a613dd6565b905060108a0361277d5784821015612762576040517f08c379a000000000000000000000000000000000000000000000000000000000815260206004820152601b60248201527f506f6f6c4c6f6769633a20494e56414c49445f5354415445315f41000000000060448201526064016106e6565b612776816127708589615448565b88613d7b565b8b526128c0565b858310156127e7576040517f08c379a000000000000000000000000000000000000000000000000000000000815260206004820152601c60248201527f506f6f6c4c6f6769633a20494e56414c49445f5354415445315f4e410000000060448201526064016106e6565b60208a0361280357612776816127fd8488615448565b87613d7b565b8482101561286d576040517f08c379a000000000000000000000000000000000000000000000000000000000815260206004820152601c60248201527f506f6f6c4c6f6769633a20494e56414c49445f5354415445315f4e420000000060448201526064016106e6565b5f85878a5f015161287e9190615448565b6128889190615448565b90505f8385875f015161289b9190615448565b6128a59190615448565b90506128bb836128b58385615448565b84613d7b565b8d5250505b8a5181036103e8111561292f576040517f08c379a000000000000000000000000000000000000000000000000000000000815260206004820152601960248201527f506f6f6c4c6f6769633a204d494e494d554d5f535550504c590000000000000060448201526064016106e6565b505b8761294e57825187516129449190615448565b60208b0152612b91565b60308803612a25575f8486895f01516129679190615448565b6129719190615448565b90505f8284865f01516129849190615448565b61298e9190615448565b90506103e88110156129fc576040517f08c379a000000000000000000000000000000000000000000000000000000000815260206004820152601c60248201527f506f6f6c4c6f6769633a204d494e494d554d5f524553455256455f430000000060448201526064016106e6565b612a18612a088b613dd6565b612a128484615448565b84613e50565b60208d015250612b919050565b60108803612abf576103e8821015612a99576040517f08c379a000000000000000000000000000000000000000000000000000000000815260206004820152601c60248201527f506f6f6c4c6f6769633a204d494e494d554d5f524553455256455f410000000060448201526064016106e6565b612ab5612aa589613dd6565b612aaf8785615448565b87613e50565b60208b0152612b4d565b6103e8811015612b2b576040517f08c379a000000000000000000000000000000000000000000000000000000000815260206004820152601c60248201527f506f6f6c4c6f6769633a204d494e494d554d5f524553455256455f420000000060448201526064016106e6565b612b47612b3789613dd6565b612b418684615448565b86613e50565b60208b01525b7001000000000000000000000000000000008c610140015114612b9157612b8e8a5f01517001000000000000000000000000000000008e6101400151613d7b565b8a525b505060208101515f805463ffffffff9081166401000000007bffffffffffffffffffffffffffffffffffffffffffffffffffffffff948516810291909117909255604090930151600180549094169216021790555094979650505050505050565b5f612bfe826014615388565b83511015612c68576040517f08c379a000000000000000000000000000000000000000000000000000000000815260206004820152601560248201527f746f416464726573735f6f75744f66426f756e6473000000000000000000000060448201526064016106e6565b5001602001516c01000000000000000000000000900490565b6040805173ffffffffffffffffffffffffffffffffffffffff85811660248301528481166044830152606480830185905283518084039091018152608490920183526020820180517bffffffffffffffffffffffffffffffffffffffffffffffffffffffff167f23b872dd0000000000000000000000000000000000000000000000000000000017905291515f92839290881691612d1f91906154d5565b5f604051808303815f865af19150503d805f8114612d58576040519150601f19603f3d011682016040523d82523d5f602084013e612d5d565b606091505b5091509150818015612d87575080511580612d87575080806020019051810190612d8791906154eb565b612e13576040517f08c379a000000000000000000000000000000000000000000000000000000000815260206004820152603160248201527f5472616e7366657248656c7065723a3a7472616e7366657246726f6d3a20747260448201527f616e7366657246726f6d206661696c656400000000000000000000000000000060648201526084016106e6565b505050505050565b5f428311612e2a575080612e99565b60e0840151428403908110612e42575f915050612e99565b5f818660e00151039050856101000151811015612e735785610100015181850281612e6f57612e6f615408565b0493505b612e9484876101200151700100000000000000000000000000000000613e50565b925050505b9392505050565b6040805173ffffffffffffffffffffffffffffffffffffffff8481166024830152604480830185905283518084039091018152606490920183526020820180517bffffffffffffffffffffffffffffffffffffffffffffffffffffffff167fa9059cbb0000000000000000000000000000000000000000000000000000000017905291515f92839290871691612f3691906154d5565b5f604051808303815f865af19150503d805f8114612f6f576040519150601f19603f3d011682016040523d82523d5f602084013e612f74565b606091505b5091509150818015612f9e575080511580612f9e575080806020019051810190612f9e91906154eb565b61302a576040517f08c379a000000000000000000000000000000000000000000000000000000000815260206004820152602d60248201527f5472616e7366657248656c7065723a3a736166655472616e736665723a20747260448201527f616e73666572206661696c65640000000000000000000000000000000000000060648201526084016106e6565b5050505050565b611d495f7f9b779b17422d0df92223018b32b4d1fa46e071723d6817e2486d003becc55f00611f81565b60408051600481526024810182526020810180517bffffffffffffffffffffffffffffffffffffffffffffffffffffffff167f3850c7bd0000000000000000000000000000000000000000000000000000000017905290515f91908290819073ffffffffffffffffffffffffffffffffffffffff8616906130dd9085906154d5565b5f60405180830381855afa9150503d805f8114613115576040519150601f19603f3d011682016040523d82523d5f602084013e61311a565b606091505b5090925090508161312d57805160208201fd5b60200151949350505050565b5f5f8263ffffffff165f036131aa576040517f08c379a000000000000000000000000000000000000000000000000000000000815260206004820152600260248201527f425000000000000000000000000000000000000000000000000000000000000060448201526064016106e6565b6040805160028082526060820183525f9260208301908036833701905050905083815f815181106131dd576131dd61550a565b602002602001019063ffffffff16908163ffffffff16815250505f8160018151811061320b5761320b61550a565b602002602001019063ffffffff16908163ffffffff16815250505f5f8673ffffffffffffffffffffffffffffffffffffffff1663883bdbfd846040518263ffffffff1660e01b81526004016132609190615537565b5f60405180830381865afa15801561327a573d5f5f3e3d5ffd5b505050506040513d5f823e601f3d9081017fffffffffffffffffffffffffffffffffffffffffffffffffffffffffffffffe01682016040526132bf91908101906155e3565b915091505f825f815181106132d6576132d661550a565b6020026020010151836001815181106132f1576132f161550a565b602002602001015161330391906156a5565b90505f825f815181106133185761331861550a565b6020026020010151836001815181106133335761333361550a565b602002602001015161334591906156ea565b905061335763ffffffff891683615716565b96505f8260060b12801561337c575061337663ffffffff891683615789565b60060b15155b1561338f578661338b816157aa565b9750505b5f6133b473ffffffffffffffffffffffffffffffffffffffff63ffffffff8b16615806565b90506133de77ffffffffffffffffffffffffffffffffffffffff00000000602084901b1682615870565b96505050505050509250929050565b5f5f5f8360020b12613402578260020b613409565b8260020b5f035b9050620d89e8811115613448576040517f2bc80f3a00000000000000000000000000000000000000000000000000000000815260040160405180910390fd5b5f816001165f0361346a5770010000000000000000000000000000000061347c565b6ffffcb933bd6fad37aa2d162d1a5940015b70ffffffffffffffffffffffffffffffffff16905060028216156134b0576ffff97272373d413259a46990580e213a0260801c5b60048216156134cf576ffff2e50f5f656932ef12357cf3c7fdcc0260801c5b60088216156134ee576fffe5caca7e10e4e61c3624eaa0941cd00260801c5b601082161561350d576fffcb9843d60f6159c9db58835c9266440260801c5b602082161561352c576fff973b41fa98c081472e6896dfb254c00260801c5b604082161561354b576fff2ea16466c96a3843ec78b326b528610260801c5b608082161561356a576ffe5dee046a99a2a811c461f1969c30530260801c5b61010082161561358a576ffcbe86c7900a88aedcffc83b479aa3a40260801c5b6102008216156135aa576ff987a7253ac413176f2b074cf7815e540260801c5b6104008216156135ca576ff3392b0822b70005940c7a398e4b70f30260801c5b6108008216156135ea576fe7159475a2c29b7443b29c7fa6e889d90260801c5b61100082161561360a576fd097f3bdfd2022b8845ad8f792aa58250260801c5b61200082161561362a576fa9f746462d870fdf8a65dc1f90e061e50260801c5b61400082161561364a576f70d869a156d2a1b890bb3df62baf32f70260801c5b61800082161561366a576f31be135f97d08fd981231505542fcfa60260801c5b6201000082161561368b576f09aa508b5b7a84e1c677de54f3e99bc90260801c5b620200008216156136ab576e5d6af8dedb81196699c329225ee6040260801c5b620400008216156136ca576d2216e584f5fa1ea926041bedfe980260801c5b620800008216156136e7576b048a170391f7dc42444e8fa20260801c5b5f8460020b131561372557807fffffffffffffffffffffffffffffffffffffffffffffffffffffffffffffffff8161372157613721615408565b0490505b64010000000081061561373957600161373b565b5f5b60ff16602082901c0192505050919050565b5f8073ffffffffffffffffffffffffffffffffffffffff841661377c5761377383610ff7565b91509150613809565b6040517f7a33e3b00000000000000000000000000000000000000000000000000000000081526004810184905273ffffffffffffffffffffffffffffffffffffffff851690637a33e3b09060240160408051808303815f875af11580156137e5573d5f5f3e3d5ffd5b505050506040513d601f19601f8201168201806040525081019061377391906158bf565b9250929050565b60808201515f908281108015613824579092905b61384d6138437001000000000000000000000000000000008685613e50565b8660600151613f19565b9250825f036138685761386584838760600151613f9f565b92505b801561389b57613898837fffffffffffffffffffffffffffffffffffffffffffffffffffffffffffffffff615435565b92505b505092915050565b5f5f6138b7848460200151855f0151613fe7565b91506138f26138e6857fffffffffffffffffffffffffffffffffffffffffffffffffffffffffffffffff615435565b60408501518551613fe7565b90509250929050565b6040517f70a082310000000000000000000000000000000000000000000000000000000081523060048201525f9073ffffffffffffffffffffffffffffffffffffffff8316906370a08231906024015b602060405180830381865afa158015613966573d5f5f3e3d5ffd5b505050506040513d601f19601f820116820180604052508101906103229190615344565b5f808080846139998789615448565b6139a39190615448565b60a089015190915015613a43575f80546139c39063ffffffff16426158e1565b63ffffffff1690508015613a41575f6139e0828b60a00151613d4f565b90505f6139f7898368010000000000000000613d7b565b90505f613a0e898468010000000000000000613d7b565b905089821080613a1d57508881105b15613a3d57613a2d826001613bae565b9950613a3a816001613bae565b98505b5050505b505b60c088015115613b46575f858711613a6457613a5f8787615448565b613a6e565b613a6e8688615448565b90506001811115613b4457613a82816158fd565b6001549091505f90613a9a9063ffffffff16426158e1565b63ffffffff1690508015613b425760c08a01515f90613ac69060011c8b613ac18b8d615388565b613d7b565b90505f613ad38383613d4f565b9050600184901c613aee818368010000000000000000613d7b565b613af89082615448565b90508015613b3e57898b1115613b2557613b12818b615388565b9950613b1e818c615448565b9a50613b3e565b613b2f818c615388565b9a50613b3b818b615448565b99505b5050505b505b505b8815613b8f575f898287613b5a8a8c615448565b613b649190615448565b613b6e9190615448565b613b789190615435565b90508015613b8d57613b8a8189615448565b97505b505b5094979396509194509192505050565b5f828218828410028218612e99565b5f828218828411028218612e99565b6040517fbd85b0390000000000000000000000000000000000000000000000000000000081523060a083901b1760048201525f9073ffffffffffffffffffffffffffffffffffffffff84169063bd85b03990602401602060405180830381865afa158015613c2d573d5f5f3e3d5ffd5b505050506040513d601f19601f82011682018060405250810190612e999190615344565b80825d5050565b5f5f5f5f5f5f613c718a5f01518b602001515f1c61374d565b9150915080821115613c7f57905b6010871480613c8e5750602088145b15613cb657613ca08a82945084613810565b9550613cac868a6138a3565b9095509350613d41565b6020871480613cc55750601088145b15613cd757613ca08a83945084613810565b613ce48a83945084613810565b9550613cf0868a6138a3565b90955093505f613d008b83613810565b90505f5f613d0e838d6138a3565b9092509050613d1d8183615388565b613d27888a615388565b1115613d3d57919750955093509150613d449050565b5050505b50505b945094509450949050565b5f80613d70613d6284604087901b615435565b613d6b90615931565b614048565b600f0b949350505050565b5f613d87848484613e50565b90505f8280613d9857613d98615408565b8486091115612e99577fffffffffffffffffffffffffffffffffffffffffffffffffffffffffffffffff8110613dcc575f5ffd5b6001019392505050565b6040517fbd85b0390000000000000000000000000000000000000000000000000000000081523060a083901b1760048201525f907f000000000000000000000000000000000000000000000000000000000000000073ffffffffffffffffffffffffffffffffffffffff169063bd85b0399060240161394b565b5f80807fffffffffffffffffffffffffffffffffffffffffffffffffffffffffffffffff858709858702925082811083820303915050805f03613ea3575f8411613e98575f5ffd5b508290049050612e99565b808411613eae575f5ffd5b5f848688095f868103871696879004966002600389028118808a02820302808a02820302808a02820302808a02820302808a02820302808a02909103029181900381900460010186841190950394909402919094039290920491909117919091029150509392505050565b5f5f8260011611613f3b57700100000000000000000000000000000000613f3d565b825b9050600182901c91505b811561032257613f698384700100000000000000000000000000000000613e50565b92506001821615613f9357613f908184700100000000000000000000000000000000613e50565b90505b600182901c9150613f47565b7001000000000000000000000000000000005b8115612e99575f613fc4828686613e50565b9050805f03613fd35750612e99565b905080613fdf836158fd565b925050613fb2565b5f6140048385700100000000000000000000000000000000613e50565b9050600182901c811115612e99575f61402e84866f40000000000000000000000000000000613e50565b90505f61403c848584613d7b565b9050612e948185615448565b5f6840000000000000000082600f0b12614060575f5ffd5b7fffffffffffffffffffffffffffffffffffffffffffffffc0000000000000000082600f0b121561409257505f919050565b6f800000000000000000000000000000005f6780000000000000008416600f0b13156140cf5770016a09e667f3bcc908b2fb1366ea957d3e0260801c5b5f8367400000000000000016600f0b13156140fb577001306fe0a31b7152de8d5a46305c85edec0260801c5b5f8367200000000000000016600f0b1315614127577001172b83c7d517adcdf7c8c50eb14a791f0260801c5b5f8367100000000000000016600f0b13156141535770010b5586cf9890f6298b92b71842a983630260801c5b5f8367080000000000000016600f0b131561417f577001059b0d31585743ae7c548eb68ca417fd0260801c5b5f8367040000000000000016600f0b13156141ab57700102c9a3e778060ee6f7caca4f7a29bde80260801c5b5f8367020000000000000016600f0b13156141d75770010163da9fb33356d84a66ae336dcdfa3f0260801c5b5f8367010000000000000016600f0b131561420357700100b1afa5abcbed6129ab13ec11dc95430260801c5b5f83668000000000000016600f0b131561422e5770010058c86da1c09ea1ff19d294cf2f679b0260801c5b5f83664000000000000016600f0b1315614259577001002c605e2e8cec506d21bfc89a23a00f0260801c5b5f83662000000000000016600f0b131561428457700100162f3904051fa128bca9c55c31e5df0260801c5b5f83661000000000000016600f0b13156142af577001000b175effdc76ba38e31671ca9397250260801c5b5f83660800000000000016600f0b13156142da57700100058ba01fb9f96d6cacd4b180917c3d0260801c5b5f83660400000000000016600f0b13156143055770010002c5cc37da9491d0985c348c68e7b30260801c5b5f83660200000000000016600f0b1315614330577001000162e525ee054754457d59952920260260801c5b5f83660100000000000016600f0b131561435b5770010000b17255775c040618bf4a4ade83fc0260801c5b5f836580000000000016600f0b1315614385577001000058b91b5bc9ae2eed81e9b7d4cfab0260801c5b5f836540000000000016600f0b13156143af57700100002c5c89d5ec6ca4d7c8acc017b7c90260801c5b5f836520000000000016600f0b13156143d95770010000162e43f4f831060e02d839a9d16d0260801c5b5f836510000000000016600f0b131561440357700100000b1721bcfc99d9f890ea069117630260801c5b5f836508000000000016600f0b131561442d5770010000058b90cf1e6d97f9ca14dbcc16280260801c5b5f836504000000000016600f0b1315614457577001000002c5c863b73f016468f6bac5ca2b0260801c5b5f836502000000000016600f0b131561448157700100000162e430e5a18f6119e3c02282a50260801c5b5f836501000000000016600f0b13156144ab577001000000b1721835514b86e6d96efd1bfe0260801c5b5f8364800000000016600f0b13156144d457700100000058b90c0b48c6be5df846c5b2ef0260801c5b5f8364400000000016600f0b13156144fd5770010000002c5c8601cc6b9e94213c72737a0260801c5b5f8364200000000016600f0b1315614526577001000000162e42fff037df38aa2b219f060260801c5b5f8364100000000016600f0b131561454f5770010000000b17217fba9c739aa5819f44f90260801c5b5f8364080000000016600f0b1315614578577001000000058b90bfcdee5acd3c1cedc8230260801c5b5f8364040000000016600f0b13156145a157700100000002c5c85fe31f35a6a30da1be500260801c5b5f8364020000000016600f0b13156145ca5770010000000162e42ff0999ce3541b9fffcf0260801c5b5f8364010000000016600f0b13156145f357700100000000b17217f80f4ef5aadda455540260801c5b5f83638000000016600f0b131561461b5770010000000058b90bfbf8479bd5a81b51ad0260801c5b5f83634000000016600f0b1315614643577001000000002c5c85fdf84bd62ae30a74cc0260801c5b5f83632000000016600f0b131561466b57700100000000162e42fefb2fed257559bdaa0260801c5b5f83631000000016600f0b1315614693577001000000000b17217f7d5a7716bba4a9ae0260801c5b5f83630800000016600f0b13156146bb57700100000000058b90bfbe9ddbac5e109cce0260801c5b5f83630400000016600f0b13156146e35770010000000002c5c85fdf4b15de6f17eb0d0260801c5b5f83630200000016600f0b131561470b577001000000000162e42fefa494f1478fde050260801c5b5f83630100000016600f0b13156147335770010000000000b17217f7d20cf927c8e94c0260801c5b5f836280000016600f0b131561475a577001000000000058b90bfbe8f71cb4e4b33d0260801c5b5f836240000016600f0b131561478157700100000000002c5c85fdf477b662b269450260801c5b5f836220000016600f0b13156147a85770010000000000162e42fefa3ae53369388c0260801c5b5f836210000016600f0b13156147cf57700100000000000b17217f7d1d351a389d400260801c5b5f836208000016600f0b13156147f65770010000000000058b90bfbe8e8b2d3d4ede0260801c5b5f836204000016600f0b131561481d577001000000000002c5c85fdf4741bea6e77e0260801c5b5f836202000016600f0b131561484457700100000000000162e42fefa39fe95583c20260801c5b5f836201000016600f0b131561486b577001000000000000b17217f7d1cfb72b45e10260801c5b5f8361800016600f0b131561489157700100000000000058b90bfbe8e7cc35c3f00260801c5b5f8361400016600f0b13156148b75770010000000000002c5c85fdf473e242ea380260801c5b5f8361200016600f0b13156148dd577001000000000000162e42fefa39f02b772c0260801c5b5f8361100016600f0b13156149035770010000000000000b17217f7d1cf7d83c1a0260801c5b5f8361080016600f0b1315614929577001000000000000058b90bfbe8e7bdcbe2e0260801c5b5f8361040016600f0b131561494f57700100000000000002c5c85fdf473dea871f0260801c5b5f8361020016600f0b13156149755770010000000000000162e42fefa39ef44d910260801c5b5f8361010016600f0b131561499b57700100000000000000b17217f7d1cf79e9490260801c5b5f83608016600f0b13156149c05770010000000000000058b90bfbe8e7bce5440260801c5b5f83604016600f0b13156149e5577001000000000000002c5c85fdf473de6eca0260801c5b5f83602016600f0b1315614a0a57700100000000000000162e42fefa39ef366f0260801c5b5f83601016600f0b1315614a2f577001000000000000000b17217f7d1cf79afa0260801c5b5f83600816600f0b1315614a5457700100000000000000058b90bfbe8e7bcd6d0260801c5b5f83600416600f0b1315614a795770010000000000000002c5c85fdf473de6b20260801c5b5f83600216600f0b1315614a9e577001000000000000000162e42fefa39ef3580260801c5b5f83600116600f0b1315614ac35770010000000000000000b17217f7d1cf79ab0260801c5b600f83810b60401d603f03900b1c6f7fffffffffffffffffffffffffffffff811115610322575f5ffd5b604051806101400160405280614b776040518061016001604052805f73ffffffffffffffffffffffffffffffffffffffff1681526020015f81526020015f73ffffffffffffffffffffffffffffffffffffffff1681526020015f81526020015f81526020015f81526020015f81526020015f81526020015f81526020015f81526020015f81525090565b8152602001614b9d60405180606001604052805f81526020015f81526020015f81525090565b81526020015f81526020015f81526020015f81526020015f81526020015f81526020015f81526020015f81526020015f81525090565b5f60208284031215614be3575f5ffd5b81357fffffffff0000000000000000000000000000000000000000000000000000000081168114612e99575f5ffd5b805173ffffffffffffffffffffffffffffffffffffffff168252602081015160208301526040810151614c5d604084018273ffffffffffffffffffffffffffffffffffffffff169052565b50606081015160608301526080810151608083015260a081015160a083015260c081015160c083015260e081015160e08301526101008101516101008301526101208101516101208301526101408101516101408301525050565b61016081016103228284614c12565b7f4e487b71000000000000000000000000000000000000000000000000000000005f52604160045260245ffd5b6040516060810167ffffffffffffffff81118282101715614d1757614d17614cc7565b60405290565b6040516080810167ffffffffffffffff81118282101715614d1757614d17614cc7565b604051610160810167ffffffffffffffff81118282101715614d1757614d17614cc7565b604051601f82017fffffffffffffffffffffffffffffffffffffffffffffffffffffffffffffffe016810167ffffffffffffffff81118282101715614dab57614dab614cc7565b604052919050565b73ffffffffffffffffffffffffffffffffffffffff81168114614dd4575f5ffd5b50565b5f82601f830112614de6575f5ffd5b813567ffffffffffffffff811115614e0057614e00614cc7565b614e3160207fffffffffffffffffffffffffffffffffffffffffffffffffffffffffffffffe0601f84011601614d64565b818152846020838601011115614e45575f5ffd5b816020850160208301375f918101602001919091529392505050565b5f60608284031215614e71575f5ffd5b614e79614cf4565b90508135614e8681614db3565b8152602082013567ffffffffffffffff811115614ea1575f5ffd5b614ead84828501614dd7565b6020830152506040820135614ec181614db3565b604082015292915050565b5f5f60408385031215614edd575f5ffd5b823567ffffffffffffffff811115614ef3575f5ffd5b830160808186031215614f04575f5ffd5b614f0c614d1d565b81358152602080830135908201526040820135614f2881614db3565b6040820152606082013567ffffffffffffffff811115614f46575f5ffd5b614f5287828501614dd7565b606083015250925050602083013567ffffffffffffffff811115614f74575f5ffd5b614f8085828601614e61565b9150509250929050565b5f60208284031215614f9a575f5ffd5b5035919050565b5f67ffffffffffffffff821115614fba57614fba614cc7565b5060051b60200190565b5f82601f830112614fd3575f5ffd5b8135614fe6614fe182614fa1565b614d64565b8082825260208201915060208360051b860101925085831115615007575f5ffd5b602085015b8381101561502457803583526020928301920161500c565b5095945050505050565b5f5f5f5f5f60a08688031215615042575f5ffd5b853561504d81614db3565b9450602086013561505d81614db3565b9350604086013567ffffffffffffffff811115615078575f5ffd5b61508488828901614fc4565b935050606086013567ffffffffffffffff8111156150a0575f5ffd5b6150ac88828901614fc4565b925050608086013567ffffffffffffffff8111156150c8575f5ffd5b6150d488828901614dd7565b9150509295509295909350565b5f5f82840360808112156150f3575f5ffd5b6060811215615100575f5ffd5b50615109614cf4565b8335815260208085013590820152604080850135908201529150606083013567ffffffffffffffff811115614f74575f5ffd5b5f5f6040838503121561514d575f5ffd5b823561515881614db3565b9150602083013561516881614db3565b809150509250929050565b5f5f5f5f60808587031215615186575f5ffd5b843561519181614db3565b966020860135965060408601359560600135945092505050565b5f6102c0820190506151be828451614c12565b6020838101518051610160850152908101516101808401526040908101516101a08401528301516101c083015260608301516101e0830152608083015161020083015260a083015161022083015260c083015161024083015260e0830151610260830152610100830151610280830152610120909201516102a09091015290565b5f5f5f5f5f60a08688031215615253575f5ffd5b853561525e81614db3565b9450602086013561526e81614db3565b93506040860135925060608601359150608086013567ffffffffffffffff8111156150c8575f5ffd5b80516152a281614db3565b919050565b5f6101608284031280156152b9575f5ffd5b506152c2614d40565b6152cb83615297565b8152602083810151908201526152e360408401615297565b6040820152606083810151908201526080808401519082015260a0808401519082015260c0808401519082015260e0808401519082015261010080840151908201526101208084015190820152610140928301519281019290925250919050565b5f60208284031215615354575f5ffd5b5051919050565b7f4e487b71000000000000000000000000000000000000000000000000000000005f52601160045260245ffd5b808201808211156103225761032261535b565b5f81518084528060208401602086015e5f6020828601015260207fffffffffffffffffffffffffffffffffffffffffffffffffffffffffffffffe0601f83011685010191505092915050565b604081525f6153f9604083018561539b565b90508260208301529392505050565b7f4e487b71000000000000000000000000000000000000000000000000000000005f52601260045260245ffd5b5f8261544357615443615408565b500490565b818103818111156103225761032261535b565b8251815260208301516020820152604083015160408201526060830151606082015260a060808201525f61549260a083018461539b565b949350505050565b5f60608284031280156154ab575f5ffd5b506154b4614cf4565b82518152602080840151908201526040928301519281019290925250919050565b5f82518060208501845e5f920191825250919050565b5f602082840312156154fb575f5ffd5b81518015158114612e99575f5ffd5b7f4e487b71000000000000000000000000000000000000000000000000000000005f52603260045260245ffd5b602080825282518282018190525f918401906040840190835b8181101561557457835163ffffffff16835260209384019390920191600101615550565b509095945050505050565b5f82601f83011261558e575f5ffd5b815161559c614fe182614fa1565b8082825260208201915060208360051b8601019250858311156155bd575f5ffd5b602085015b838110156150245780516155d581614db3565b8352602092830192016155c2565b5f5f604083850312156155f4575f5ffd5b825167ffffffffffffffff81111561560a575f5ffd5b8301601f8101851361561a575f5ffd5b8051615628614fe182614fa1565b8082825260208201915060208360051b850101925087831115615649575f5ffd5b6020840193505b828410156156795783518060060b8114615668575f5ffd5b825260209384019390910190615650565b80955050505050602083015167ffffffffffffffff811115615699575f5ffd5b614f808582860161557f565b600682810b9082900b037fffffffffffffffffffffffffffffffffffffffffffffffffff800000000000008112667fffffffffffff821317156103225761032261535b565b73ffffffffffffffffffffffffffffffffffffffff82811682821603908111156103225761032261535b565b5f8160060b8360060b8061572c5761572c615408565b7fffffffffffffffffffffffffffffffffffffffffffffffffffffffffffffffff81147fffffffffffffffffffffffffffffffffffffffffffffffffff80000000000000831416156157805761578061535b565b90059392505050565b5f8260060b8061579b5761579b615408565b808360060b0791505092915050565b5f8160020b7fffffffffffffffffffffffffffffffffffffffffffffffffffffffffff80000081036157de576157de61535b565b7fffffffffffffffffffffffffffffffffffffffffffffffffffffffffffffffff0192915050565b5f77ffffffffffffffffffffffffffffffffffffffffffffffff821677ffffffffffffffffffffffffffffffffffffffffffffffff841677ffffffffffffffffffffffffffffffffffffffffffffffff818302169250818304811482151761389b5761389b61535b565b5f77ffffffffffffffffffffffffffffffffffffffffffffffff83168061589957615899615408565b8077ffffffffffffffffffffffffffffffffffffffffffffffff84160491505092915050565b5f5f604083850312156158d0575f5ffd5b505080516020909101519092909150565b63ffffffff82811682821603908111156103225761032261535b565b5f8161590b5761590b61535b565b507fffffffffffffffffffffffffffffffffffffffffffffffffffffffffffffffff0190565b5f81600f0b7fffffffffffffffffffffffffffffffff8000000000000000000000000000000081036159655761596561535b565b5f039291505056fea164736f6c634300081c000a",
  "linkReferences": {},
  "deployedLinkReferences": {}
}