{
  "_format": "hh-sol-artifact-1",
  "contractName": "View",
  "sourceName": "contracts/support/View.sol",
  "abi": [
    {
      "inputs": [
        {
          "internalType": "address",
          "name": "token",
          "type": "address"
        },
        {
          "internalType": "address",
          "name": "feeTo",
          "type": "address"
        },
        {
          "internalType": "uint256",
          "name": "feeRate",
          "type": "uint256"
        }
      ],
      "stateMutability": "nonpayable",
      "type": "constructor"
    },
    {
      "inputs": [],
      "name": "ReentrancyGuardReentrantCall",
      "type": "error"
    },
    {
      "inputs": [],
      "name": "T",
      "type": "error"
    },
    {
      "anonymous": false,
      "inputs": [
        {
          "indexed": true,
          "internalType": "address",
          "name": "payer",
          "type": "address"
        },
        {
          "indexed": true,
          "internalType": "address",
          "name": "recipient",
          "type": "address"
        },
        {
          "indexed": true,
          "internalType": "address",
          "name": "index",
          "type": "address"
        },
        {
          "indexed": false,
          "internalType": "uint256",
          "name": "id",
          "type": "uint256"
        },
        {
          "indexed": false,
          "internalType": "uint256",
          "name": "amount",
          "type": "uint256"
        },
        {
          "indexed": false,
          "internalType": "uint256",
          "name": "maturity",
          "type": "uint256"
        },
        {
          "indexed": false,
          "internalType": "uint256",
          "name": "price",
          "type": "uint256"
        },
        {
          "indexed": false,
          "internalType": "uint256",
          "name": "valueR",
          "type": "uint256"
        }
      ],
      "name": "Position",
      "type": "event"
    },
    {
      "inputs": [
        {
          "internalType": "address",
          "name": "",
          "type": "address"
        },
        {
          "internalType": "address",
          "name": "",
          "type": "address"
        }
      ],
      "name": "allowance",
      "outputs": [
        {
          "internalType": "string",
          "name": "",
          "type": "string"
        }
      ],
      "stateMutability": "pure",
      "type": "function"
    },
    {
      "inputs": [
        {
          "internalType": "address",
          "name": "TOKEN",
          "type": "address"
        },
        {
          "internalType": "uint256",
          "name": "FEE_RATE",
          "type": "uint256"
        },
        {
          "internalType": "uint256",
          "name": "twap",
          "type": "uint256"
        },
        {
          "internalType": "uint256",
          "name": "spot",
          "type": "uint256"
        }
      ],
      "name": "compute",
      "outputs": [
        {
          "components": [
            {
              "components": [
                {
                  "internalType": "uint256",
                  "name": "R",
                  "type": "uint256"
                },
                {
                  "internalType": "uint256",
                  "name": "a",
                  "type": "uint256"
                },
                {
                  "internalType": "uint256",
                  "name": "b",
                  "type": "uint256"
                }
              ],
              "internalType": "struct State",
              "name": "state",
              "type": "tuple"
            },
            {
              "internalType": "uint256",
              "name": "sA",
              "type": "uint256"
            },
            {
              "internalType": "uint256",
              "name": "sB",
              "type": "uint256"
            },
            {
              "internalType": "uint256",
              "name": "sC",
              "type": "uint256"
            },
            {
              "internalType": "uint256",
              "name": "rA",
              "type": "uint256"
            },
            {
              "internalType": "uint256",
              "name": "rB",
              "type": "uint256"
            },
            {
              "internalType": "uint256",
              "name": "rC",
              "type": "uint256"
            },
            {
              "internalType": "uint256",
              "name": "twap",
              "type": "uint256"
            },
            {
              "internalType": "uint256",
              "name": "spot",
              "type": "uint256"
            }
          ],
          "internalType": "struct View.StateView",
          "name": "stateView",
          "type": "tuple"
        }
      ],
      "stateMutability": "nonpayable",
      "type": "function"
    },
    {
      "inputs": [],
      "name": "ensureStateIntegrity",
      "outputs": [],
      "stateMutability": "view",
      "type": "function"
    },
    {
      "inputs": [
        {
          "internalType": "uint256",
          "name": "ORACLE",
          "type": "uint256"
        }
      ],
      "name": "fetch",
      "outputs": [
        {
          "internalType": "uint256",
          "name": "twap",
          "type": "uint256"
        },
        {
          "internalType": "uint256",
          "name": "spot",
          "type": "uint256"
        }
      ],
      "stateMutability": "view",
      "type": "function"
    },
    {
      "inputs": [],
      "name": "getStates",
      "outputs": [
        {
          "internalType": "uint256",
          "name": "R",
          "type": "uint256"
        },
        {
          "internalType": "uint256",
          "name": "a",
          "type": "uint256"
        },
        {
          "internalType": "uint256",
          "name": "b",
          "type": "uint256"
        },
        {
          "internalType": "uint32",
          "name": "i",
          "type": "uint32"
        },
        {
          "internalType": "uint32",
          "name": "f",
          "type": "uint32"
        }
      ],
      "stateMutability": "view",
      "type": "function"
    },
    {
      "inputs": [
        {
          "components": [
            {
              "internalType": "uint256",
              "name": "R",
              "type": "uint256"
            },
            {
              "internalType": "uint256",
              "name": "a",
              "type": "uint256"
            },
            {
              "internalType": "uint256",
              "name": "b",
              "type": "uint256"
            }
          ],
          "internalType": "struct State",
          "name": "state",
          "type": "tuple"
        },
        {
          "components": [
            {
              "internalType": "address",
              "name": "utr",
              "type": "address"
            },
            {
              "internalType": "bytes",
              "name": "payer",
              "type": "bytes"
            },
            {
              "internalType": "address",
              "name": "recipient",
              "type": "address"
            }
          ],
          "internalType": "struct Payment",
          "name": "payment",
          "type": "tuple"
        }
      ],
      "name": "init",
      "outputs": [],
      "stateMutability": "nonpayable",
      "type": "function"
    },
    {
      "inputs": [
        {
          "internalType": "address",
          "name": "",
          "type": "address"
        },
        {
          "internalType": "address",
          "name": "",
          "type": "address"
        }
      ],
      "name": "isApprovedForAll",
      "outputs": [
        {
          "internalType": "string",
          "name": "",
          "type": "string"
        }
      ],
      "stateMutability": "pure",
      "type": "function"
    },
    {
      "inputs": [],
      "name": "loadConfig",
      "outputs": [
        {
          "components": [
            {
              "internalType": "address",
              "name": "FETCHER",
              "type": "address"
            },
            {
              "internalType": "bytes32",
              "name": "ORACLE",
              "type": "bytes32"
            },
            {
              "internalType": "address",
              "name": "TOKEN_R",
              "type": "address"
            },
            {
              "internalType": "uint256",
              "name": "K",
              "type": "uint256"
            },
            {
              "internalType": "uint256",
              "name": "MARK",
              "type": "uint256"
            },
            {
              "internalType": "uint256",
              "name": "INTEREST_HL",
              "type": "uint256"
            },
            {
              "internalType": "uint256",
              "name": "PREMIUM_HL",
              "type": "uint256"
            },
            {
              "internalType": "uint256",
              "name": "MATURITY",
              "type": "uint256"
            },
            {
              "internalType": "uint256",
              "name": "MATURITY_VEST",
              "type": "uint256"
            },
            {
              "internalType": "uint256",
              "name": "MATURITY_RATE",
              "type": "uint256"
            },
            {
              "internalType": "uint256",
              "name": "OPEN_RATE",
              "type": "uint256"
            }
          ],
          "internalType": "struct Config",
          "name": "config",
          "type": "tuple"
        }
      ],
      "stateMutability": "pure",
      "type": "function"
    },
    {
      "inputs": [],
      "name": "metadata",
      "outputs": [
        {
          "components": [
            {
              "components": [
                {
                  "internalType": "address",
                  "name": "FETCHER",
                  "type": "address"
                },
                {
                  "internalType": "bytes32",
                  "name": "ORACLE",
                  "type": "bytes32"
                },
                {
                  "internalType": "address",
                  "name": "TOKEN_R",
                  "type": "address"
                },
                {
                  "internalType": "uint256",
                  "name": "K",
                  "type": "uint256"
                },
                {
                  "internalType": "uint256",
                  "name": "MARK",
                  "type": "uint256"
                },
                {
                  "internalType": "uint256",
                  "name": "INTEREST_HL",
                  "type": "uint256"
                },
                {
                  "internalType": "uint256",
                  "name": "PREMIUM_HL",
                  "type": "uint256"
                },
                {
                  "internalType": "uint256",
                  "name": "MATURITY",
                  "type": "uint256"
                },
                {
                  "internalType": "uint256",
                  "name": "MATURITY_VEST",
                  "type": "uint256"
                },
                {
                  "internalType": "uint256",
                  "name": "MATURITY_RATE",
                  "type": "uint256"
                },
                {
                  "internalType": "uint256",
                  "name": "OPEN_RATE",
                  "type": "uint256"
                }
              ],
              "internalType": "struct Config",
              "name": "config",
              "type": "tuple"
            },
            {
              "components": [
                {
                  "internalType": "address",
                  "name": "token",
                  "type": "address"
                },
                {
                  "internalType": "string",
                  "name": "symbol",
                  "type": "string"
                },
                {
                  "internalType": "uint256",
                  "name": "decimals",
                  "type": "uint256"
                }
              ],
              "internalType": "struct View.TokenMetadata",
              "name": "reserve",
              "type": "tuple"
            },
            {
              "components": [
                {
                  "internalType": "address",
                  "name": "token",
                  "type": "address"
                },
                {
                  "internalType": "string",
                  "name": "symbol",
                  "type": "string"
                },
                {
                  "internalType": "uint256",
                  "name": "decimals",
                  "type": "uint256"
                }
              ],
              "internalType": "struct View.TokenMetadata",
              "name": "base",
              "type": "tuple"
            },
            {
              "components": [
                {
                  "internalType": "address",
                  "name": "token",
                  "type": "address"
                },
                {
                  "internalType": "string",
                  "name": "symbol",
                  "type": "string"
                },
                {
                  "internalType": "uint256",
                  "name": "decimals",
                  "type": "uint256"
                }
              ],
              "internalType": "struct View.TokenMetadata",
              "name": "quote",
              "type": "tuple"
            }
          ],
          "internalType": "struct View.Metadata",
          "name": "meta",
          "type": "tuple"
        }
      ],
      "stateMutability": "view",
      "type": "function"
    },
    {
      "inputs": [
        {
          "internalType": "address",
          "name": "",
          "type": "address"
        },
        {
          "internalType": "address",
          "name": "",
          "type": "address"
        },
        {
          "internalType": "uint256[]",
          "name": "",
          "type": "uint256[]"
        },
        {
          "internalType": "uint256[]",
          "name": "",
          "type": "uint256[]"
        },
        {
          "internalType": "bytes",
          "name": "",
          "type": "bytes"
        }
      ],
      "name": "onERC1155BatchReceived",
      "outputs": [
        {
          "internalType": "bytes4",
          "name": "",
          "type": "bytes4"
        }
      ],
      "stateMutability": "nonpayable",
      "type": "function"
    },
    {
      "inputs": [
        {
          "internalType": "address",
          "name": "",
          "type": "address"
        },
        {
          "internalType": "address",
          "name": "",
          "type": "address"
        },
        {
          "internalType": "uint256",
          "name": "",
          "type": "uint256"
        },
        {
          "internalType": "uint256",
          "name": "",
          "type": "uint256"
        },
        {
          "internalType": "bytes",
          "name": "",
          "type": "bytes"
        }
      ],
      "name": "onERC1155Received",
      "outputs": [
        {
          "internalType": "bytes4",
          "name": "",
          "type": "bytes4"
        }
      ],
      "stateMutability": "nonpayable",
      "type": "function"
    },
    {
      "inputs": [
        {
          "internalType": "bytes4",
          "name": "interfaceId",
          "type": "bytes4"
        }
      ],
      "name": "supportsInterface",
      "outputs": [
        {
          "internalType": "bool",
          "name": "",
          "type": "bool"
        }
      ],
      "stateMutability": "view",
      "type": "function"
    },
    {
      "inputs": [
        {
          "components": [
            {
              "internalType": "uint256",
              "name": "sideIn",
              "type": "uint256"
            },
            {
              "internalType": "uint256",
              "name": "sideOut",
              "type": "uint256"
            },
            {
              "internalType": "address",
              "name": "helper",
              "type": "address"
            },
            {
              "internalType": "bytes",
              "name": "payload",
              "type": "bytes"
            }
          ],
          "internalType": "struct Param",
          "name": "param",
          "type": "tuple"
        },
        {
          "components": [
            {
              "internalType": "address",
              "name": "utr",
              "type": "address"
            },
            {
              "internalType": "bytes",
              "name": "payer",
              "type": "bytes"
            },
            {
              "internalType": "address",
              "name": "recipient",
              "type": "address"
            }
          ],
          "internalType": "struct Payment",
          "name": "payment",
          "type": "tuple"
        }
      ],
      "name": "swap",
      "outputs": [
        {
          "internalType": "uint256",
          "name": "amountIn",
          "type": "uint256"
        },
        {
          "internalType": "uint256",
          "name": "amountOut",
          "type": "uint256"
        },
        {
          "internalType": "uint256",
          "name": "price",
          "type": "uint256"
        }
      ],
      "stateMutability": "nonpayable",
      "type": "function"
    }
  ],
  "bytecode": "0x60e060405234801561000f575f5ffd5b506040516162dc3803806162dc83398101604081905261002e9161011f565b828282826001600160a01b03811661008d5760405162461bcd60e51b815260206004820152601660248201527f506f6f6c426173653a205a45524f5f414444524553530000000000000000000060448201526064015b60405180910390fd5b6001600160a01b0390811660805282166100e95760405162461bcd60e51b815260206004820152601760248201527f506f6f6c4c6f6769633a205a45524f5f414444524553530000000000000000006044820152606401610084565b6001600160a01b0390911660a05260c0525061015892505050565b80516001600160a01b038116811461011a575f5ffd5b919050565b5f5f5f60608486031215610131575f5ffd5b61013a84610104565b925061014860208501610104565b9150604084015190509250925092565b60805160a05160c0516160ff6101dd5f395f8181612916015261293d01525f61298601525f8181610834015281816108f5015281816109b201528181610ad001528181610bf001528181610cad01528181610d5401528181610e1101528181610fd601528181611dcc01528181611e9e01528181611f7001526143a901526160ff5ff3fe608060405234801561000f575f5ffd5b50600436106100da575f3560e01c8063d8ab827411610088578063e985e9c511610063578063e985e9c51461023d578063eb7e50dd14610291578063ed57620414610299578063f23a6e6114610331575f5ffd5b8063d8ab8274146101ef578063dc1a6f3314610228578063dd62ed3e1461023d575f5ffd5b8063392f37e9116100b8578063392f37e9146101495780637a33e3b01461015e578063bc197c8114610186575f5ffd5b806301ffc9a7146100de57806322d65951146101065780632b2f29131461011b575b5f5ffd5b6100f16100ec366004615232565b610369565b60405190151581526020015b60405180910390f35b61010e610401565b6040516100fd9190615317565b61012e610129366004615538565b6104c2565b604080519384526020840192909252908201526060016100fd565b6101516110d0565b6040516100fd919061568a565b61017161016c366004615732565b6115f9565b604080519283526020830191909152016100fd565b6101be6101943660046157d1565b7fbc197c810000000000000000000000000000000000000000000000000000000095945050505050565b6040517fffffffff0000000000000000000000000000000000000000000000000000000090911681526020016100fd565b6101f76116d5565b6040805195865260208601949094529284019190915263ffffffff908116606084015216608082015260a0016100fd565b61023b610236366004615884565b6117bf565b005b61028461024b3660046158df565b505060408051808201909152601381527f54484953204953204e4f54204120544f4b454e00000000000000000000000000602082015290565b6040516100fd9190615916565b61023b612260565b6102ac6102a7366004615928565b6122eb565b6040516100fd91905f610160820190508251805183526020810151602084015260408101516040840152506020830151606083015260408301516080830152606083015160a0830152608083015160c083015260a083015160e083015260c083015161010083015260e083015161012083015261010083015161014083015292915050565b6101be61033f366004615960565b7ff23a6e610000000000000000000000000000000000000000000000000000000095945050505050565b5f7fffffffff0000000000000000000000000000000000000000000000000000000082167f4e2312e00000000000000000000000000000000000000000000000000000000014806103fb57507f01ffc9a7000000000000000000000000000000000000000000000000000000007fffffffff000000000000000000000000000000000000000000000000000000008316145b92915050565b61047f6040518061016001604052805f73ffffffffffffffffffffffffffffffffffffffff1681526020015f81526020015f73ffffffffffffffffffffffffffffffffffffffff1681526020015f81526020015f81526020015f81526020015f81526020015f81526020015f81526020015f81526020015f81525090565b6060602036038035808203915060405192506020810183016040528083526020830181838237505050808060200190518101906104bc91906159c8565b91505090565b5f5f5f6104cd61249e565b5f6104d6610401565b90505f6104e38288612524565b8051602082015160408301518a5192985090965094509091505f906107e557602087015151156107ce5761051b87602001515f61318f565b90508660200151516014036105a257604080840151815173ffffffffffffffffffffffffffffffffffffffff8085166020830152309382019390935260146060820152911660808201525f60a082015260c001604080517fffffffffffffffffffffffffffffffffffffffffffffffffffffffffffffffe081840301815291905260208801525b60408084015190517f70a082310000000000000000000000000000000000000000000000000000000081523060048201525f9173ffffffffffffffffffffffffffffffffffffffff16906370a0823190602401602060405180830381865afa158015610610573d5f5f3e3d5ffd5b505050506040513d601f19601f820116820180604052508101906106349190615a65565b61063e9088615aa9565b885160208a01516040517f715ef7f900000000000000000000000000000000000000000000000000000000815292935073ffffffffffffffffffffffffffffffffffffffff9091169163715ef7f99161069b918b90600401615abc565b5f604051808303815f87803b1580156106b2575f5ffd5b505af11580156106c4573d5f5f3e3d5ffd5b50505060408086015190517f70a0823100000000000000000000000000000000000000000000000000000000815230600482015273ffffffffffffffffffffffffffffffffffffffff90911691506370a0823190602401602060405180830381865afa158015610736573d5f5f3e3d5ffd5b505050506040513d601f19601f8201168201806040525081019061075a9190615a65565b8111156107c8576040517f08c379a000000000000000000000000000000000000000000000000000000000815260206004820152601e60248201527f506f6f6c426173653a20494e53554646494349454e545f5041594d454e54000060448201526064015b60405180910390fd5b50610f1b565b6107de836040015133308961321e565b5033610f1b565b87515f9060a01b301790505f5f8960200151511115610d1f576040517efdd58e000000000000000000000000000000000000000000000000000000008152306004820152602481018390525f907f000000000000000000000000000000000000000000000000000000000000000073ffffffffffffffffffffffffffffffffffffffff169062fdd58e90604401602060405180830381865afa15801561088d573d5f5f3e3d5ffd5b505050506040513d601f19601f820116820180604052508101906108b19190615a65565b90508015610962576040517ff5298aca00000000000000000000000000000000000000000000000000000000815230600482015260248101849052604481018290527f000000000000000000000000000000000000000000000000000000000000000073ffffffffffffffffffffffffffffffffffffffff169063f5298aca906064015f604051808303815f87803b15801561094b575f5ffd5b505af115801561095d573d5f5f3e3d5ffd5b505050505b6109708a602001515f61318f565b9350896020015151601403610a17576040805173ffffffffffffffffffffffffffffffffffffffff8681166020830152309282019290925261048360608201527f0000000000000000000000000000000000000000000000000000000000000000909116608082015260a0810184905260c001604080517fffffffffffffffffffffffffffffffffffffffffffffffffffffffffffffffe081840301815291905260208b01525b895160208b01516040517f715ef7f900000000000000000000000000000000000000000000000000000000815273ffffffffffffffffffffffffffffffffffffffff9092169163715ef7f991610a71918d90600401615abc565b5f604051808303815f87803b158015610a88575f5ffd5b505af1158015610a9a573d5f5f3e3d5ffd5b50506040517efdd58e000000000000000000000000000000000000000000000000000000008152306004820152602481018690527f000000000000000000000000000000000000000000000000000000000000000073ffffffffffffffffffffffffffffffffffffffff16925062fdd58e9150604401602060405180830381865afa158015610b2b573d5f5f3e3d5ffd5b505050506040513d601f19601f82011682018060405250810190610b4f9190615a65565b905080891115610bbb576040517f08c379a000000000000000000000000000000000000000000000000000000000815260206004820152601e60248201527f506f6f6c426173653a20494e53554646494349454e545f5041594d454e54000060448201526064016107bf565b6040517fcb263dc6000000000000000000000000000000000000000000000000000000008152306004820152602481018490527f000000000000000000000000000000000000000000000000000000000000000073ffffffffffffffffffffffffffffffffffffffff169063cb263dc690604401602060405180830381865afa158015610c4a573d5f5f3e3d5ffd5b505050506040513d601f19601f82011682018060405250810190610c6e9190615a65565b6040517ff5298aca00000000000000000000000000000000000000000000000000000000815230600482015260248101859052604481018390529092507f000000000000000000000000000000000000000000000000000000000000000073ffffffffffffffffffffffffffffffffffffffff169063f5298aca906064015f604051808303815f87803b158015610d03575f5ffd5b505af1158015610d15573d5f5f3e3d5ffd5b5050505050610e81565b6040517fcb263dc6000000000000000000000000000000000000000000000000000000008152336004820152602481018390527f000000000000000000000000000000000000000000000000000000000000000073ffffffffffffffffffffffffffffffffffffffff169063cb263dc690604401602060405180830381865afa158015610dae573d5f5f3e3d5ffd5b505050506040513d601f19601f82011682018060405250810190610dd29190615a65565b6040517ff5298aca00000000000000000000000000000000000000000000000000000000815233600482015260248101849052604481018a90529091507f000000000000000000000000000000000000000000000000000000000000000073ffffffffffffffffffffffffffffffffffffffff169063f5298aca906064015f604051808303815f87803b158015610e67575f5ffd5b505af1158015610e79573d5f5f3e3d5ffd5b505050503392505b5f5f8b6020015114610e93575f610e95565b875b602080880151604080518781529283018d90528201859052606082018a90526080820183905291925073ffffffffffffffffffffffffffffffffffffffff918216915f91908716907fba5c330f8eb505cee9b4eb08fecf34234a327cfb6f9e480f9d3b4dfae5b23e4d9060a00160405180910390a4610f1586838a6133b8565b97505050505b60208801515f90610f3e57610f39846040015189604001518861343d565b6110bd565b60208901515f9060a01b301790508460e001514263ffffffff16610f629190615aa9565b60408a81015190517f3c8cb4ef00000000000000000000000000000000000000000000000000000000815273ffffffffffffffffffffffffffffffffffffffff918216600482015260248101849052604481018a905263ffffffff8316606482015260a060848201525f60a48201529193507f00000000000000000000000000000000000000000000000000000000000000001690633c8cb4ef9060c4015f604051808303815f87803b158015611017575f5ffd5b505af1158015611029573d5f5f3e3d5ffd5b50508b515f925015905061103d575f61103f565b885b6020808801516040808e015181518781529384018d9052908301879052606083018b90526080830184905292935073ffffffffffffffffffffffffffffffffffffffff90811692811691908716907fba5c330f8eb505cee9b4eb08fecf34234a327cfb6f9e480f9d3b4dfae5b23e4d9060a00160405180910390a450505b505050506110c96135ce565b9250925092565b6110d861508a565b5f6110e1610401565b90505f81602001515f1c90505f8190505f8173ffffffffffffffffffffffffffffffffffffffff16630dfe16816040518163ffffffff1660e01b8152600401602060405180830381865afa15801561113b573d5f5f3e3d5ffd5b505050506040513d601f19601f8201168201806040525081019061115f9190615add565b90505f8273ffffffffffffffffffffffffffffffffffffffff1663d21220a76040518163ffffffff1660e01b8152600401602060405180830381865afa1580156111ab573d5f5f3e3d5ffd5b505050506040513d601f19601f820116820180604052508101906111cf9190615add565b90507f800000000000000000000000000000000000000000000000000000000000000084165f81900361122b57604087015173ffffffffffffffffffffffffffffffffffffffff80841690915260608801519084169052611256565b604087015173ffffffffffffffffffffffffffffffffffffffff808516909152606088015190831690525b86604001515f015173ffffffffffffffffffffffffffffffffffffffff166395d89b416040518163ffffffff1660e01b81526004015f60405180830381865afa1580156112a5573d5f5f3e3d5ffd5b505050506040513d5f823e601f3d9081017fffffffffffffffffffffffffffffffffffffffffffffffffffffffffffffffe01682016040526112ea9190810190615af8565b87604001516020018190525086604001515f015173ffffffffffffffffffffffffffffffffffffffff1663313ce5676040518163ffffffff1660e01b8152600401602060405180830381865afa158015611346573d5f5f3e3d5ffd5b505050506040513d601f19601f8201168201806040525081019061136a9190615b6d565b60ff168760400151604001818152505086606001515f015173ffffffffffffffffffffffffffffffffffffffff166395d89b416040518163ffffffff1660e01b81526004015f60405180830381865afa1580156113c9573d5f5f3e3d5ffd5b505050506040513d5f823e601f3d9081017fffffffffffffffffffffffffffffffffffffffffffffffffffffffffffffffe016820160405261140e9190810190615af8565b87606001516020018190525086606001515f015173ffffffffffffffffffffffffffffffffffffffff1663313ce5676040518163ffffffff1660e01b8152600401602060405180830381865afa15801561146a573d5f5f3e3d5ffd5b505050506040513d601f19601f8201168201806040525081019061148e9190615b6d565b606088015160ff919091166040918201528681015160208901805173ffffffffffffffffffffffffffffffffffffffff9283169052515182517f95d89b4100000000000000000000000000000000000000000000000000000000815292519116916395d89b41916004808301925f9291908290030181865afa158015611516573d5f5f3e3d5ffd5b505050506040513d5f823e601f3d9081017fffffffffffffffffffffffffffffffffffffffffffffffffffffffffffffffe016820160405261155b9190810190615af8565b87602001516020018190525086602001515f015173ffffffffffffffffffffffffffffffffffffffff1663313ce5676040518163ffffffff1660e01b8152600401602060405180830381865afa1580156115b7573d5f5f3e3d5ffd5b505050506040513d601f19601f820116820180604052508101906115db9190615b6d565b602088015160ff919091166040909101525050509183525090919050565b5f808281611606826135f8565b90505f6116178360c088901c6136d6565b5090505f6116248261398a565b73ffffffffffffffffffffffffffffffffffffffff169050602083901b9450602081901b95507f800000000000000000000000000000000000000000000000000000000000000087165f036116cc5761169d857fffffffffffffffffffffffffffffffffffffffffffffffffffffffffffffffff615bba565b94506116c9867fffffffffffffffffffffffffffffffffffffffffffffffffffffffffffffffff615bba565b95505b50505050915091565b5f5f5f5f5f5f6116e3610401565b60408082015190517f70a0823100000000000000000000000000000000000000000000000000000000815230600482015291925073ffffffffffffffffffffffffffffffffffffffff16906370a0823190602401602060405180830381865afa158015611752573d5f5f3e3d5ffd5b505050506040513d601f19601f820116820180604052508101906117769190615a65565b5f5460015491987bffffffffffffffffffffffffffffffffffffffffffffffffffffffff64010000000080840482169a50840416975063ffffffff918216965091169350915050565b5f5463ffffffff161561182e576040517f08c379a000000000000000000000000000000000000000000000000000000000815260206004820152601d60248201527f506f6f6c426173653a20414c52454144595f494e495449414c495a454400000060448201526064016107bf565b815160208301516040840151821580159061184857505f82115b801561185357505f81115b6118b9576040517f08c379a000000000000000000000000000000000000000000000000000000000815260206004820152601460248201527f506f6f6c426173653a205a45524f5f504152414d00000000000000000000000060448201526064016107bf565b7bffffffffffffffffffffffffffffffffffffffffffffffffffffffff80831664010000000090810263ffffffff42169081175f90815592841690910217600155611902610401565b90505f5f8660200151511115611bcd5760408083015190517f70a082310000000000000000000000000000000000000000000000000000000081523060048201525f9173ffffffffffffffffffffffffffffffffffffffff16906370a0823190602401602060405180830381865afa158015611980573d5f5f3e3d5ffd5b505050506040513d601f19601f820116820180604052508101906119a49190615a65565b6119ae9087615aa9565b90506119be87602001515f61318f565b9150866020015151601403611a4557604080840151815173ffffffffffffffffffffffffffffffffffffffff8086166020830152309382019390935260146060820152911660808201525f60a082015260c001604080517fffffffffffffffffffffffffffffffffffffffffffffffffffffffffffffffe081840301815291905260208801525b865160208801516040517f715ef7f900000000000000000000000000000000000000000000000000000000815273ffffffffffffffffffffffffffffffffffffffff9092169163715ef7f991611a9f918a90600401615abc565b5f604051808303815f87803b158015611ab6575f5ffd5b505af1158015611ac8573d5f5f3e3d5ffd5b50505060408085015190517f70a0823100000000000000000000000000000000000000000000000000000000815230600482015273ffffffffffffffffffffffffffffffffffffffff90911691506370a0823190602401602060405180830381865afa158015611b3a573d5f5f3e3d5ffd5b505050506040513d601f19601f82011682018060405250810190611b5e9190615a65565b811115611bc7576040517f08c379a000000000000000000000000000000000000000000000000000000000815260206004820152601e60248201527f506f6f6c426173653a20494e53554646494349454e545f5041594d454e54000060448201526064016107bf565b50611be0565b611bdd826040015133308861321e565b50335b8151602083015130741000000000000000000000000000000000000000008117927420000000000000000000000000000000000000000082179274300000000000000000000000000000000000000000909217915f91611c3f91613cea565b5090505f5f611c57611c518985613dad565b8e613e40565b915091506103e8821015611cc7576040517f08c379a000000000000000000000000000000000000000000000000000000000815260206004820152601b60248201527f506f6f6c426173653a204d494e494d554d5f524553455256455f41000000000060448201526064016107bf565b6103e8811015611d33576040517f08c379a000000000000000000000000000000000000000000000000000000000815260206004820152601b60248201527f506f6f6c426173653a204d494e494d554d5f524553455256455f42000000000060448201526064016107bf565b5f81611d3f848e615bcd565b611d499190615bcd565b90506103e8811015611db7576040517f08c379a000000000000000000000000000000000000000000000000000000000815260206004820152601b60248201527f506f6f6c426173653a204d494e494d554d5f524553455256455f43000000000060448201526064016107bf565b5f8960e0015142611dc89190615aa9565b90507f000000000000000000000000000000000000000000000000000000000000000073ffffffffffffffffffffffffffffffffffffffff16633c8cb4ef8f604001518a87856040518563ffffffff1660e01b8152600401611e6f949392919073ffffffffffffffffffffffffffffffffffffffff9490941684526020840192909252604083015263ffffffff16606082015260a0608082018190525f9082015260c00190565b5f604051808303815f87803b158015611e86575f5ffd5b505af1158015611e98573d5f5f3e3d5ffd5b505050507f000000000000000000000000000000000000000000000000000000000000000073ffffffffffffffffffffffffffffffffffffffff16633c8cb4ef8f604001518986856040518563ffffffff1660e01b8152600401611f41949392919073ffffffffffffffffffffffffffffffffffffffff9490941684526020840192909252604083015263ffffffff16606082015260a0608082018190525f9082015260c00190565b5f604051808303815f87803b158015611f58575f5ffd5b505af1158015611f6a573d5f5f3e3d5ffd5b505050507f000000000000000000000000000000000000000000000000000000000000000073ffffffffffffffffffffffffffffffffffffffff16633c8cb4ef8f604001518885856040518563ffffffff1660e01b8152600401612013949392919073ffffffffffffffffffffffffffffffffffffffff9490941684526020840192909252604083015263ffffffff16606082015260a0608082018190525f9082015260c00190565b5f604051808303815f87803b15801561202a575f5ffd5b505af115801561203c573d5f5f3e3d5ffd5b505050505f8a602001515f1c90508073ffffffffffffffffffffffffffffffffffffffff168f6040015173ffffffffffffffffffffffffffffffffffffffff168b73ffffffffffffffffffffffffffffffffffffffff167fba5c330f8eb505cee9b4eb08fecf34234a327cfb6f9e480f9d3b4dfae5b23e4d8c89878c8c6040516120ee959493929190948552602085019390935263ffffffff9190911660408401526060830152608082015260a00190565b60405180910390a48073ffffffffffffffffffffffffffffffffffffffff168f6040015173ffffffffffffffffffffffffffffffffffffffff168b73ffffffffffffffffffffffffffffffffffffffff167fba5c330f8eb505cee9b4eb08fecf34234a327cfb6f9e480f9d3b4dfae5b23e4d8b88878c8b60405161219a959493929190948552602085019390935263ffffffff9190911660408401526060830152608082015260a00190565b60405180910390a48073ffffffffffffffffffffffffffffffffffffffff168f6040015173ffffffffffffffffffffffffffffffffffffffff168b73ffffffffffffffffffffffffffffffffffffffff167fba5c330f8eb505cee9b4eb08fecf34234a327cfb6f9e480f9d3b4dfae5b23e4d8a87878c8a604051612246959493929190948552602085019390935263ffffffff9190911660408401526060830152608082015260a00190565b60405180910390a450505050505050505050505050505050565b7f9b779b17422d0df92223018b32b4d1fa46e071723d6817e2486d003becc55f005c156122e9576040517f08c379a000000000000000000000000000000000000000000000000000000000815260206004820152601960248201527f506f6f6c426173653a2053544154455f494e544547524954590000000000000060448201526064016107bf565b565b6122f36151cf565b5f6122fc610401565b90505f60405180606001604052806123178460400151613e98565b81525f547bffffffffffffffffffffffffffffffffffffffffffffffffffffffff64010000000091829004811660208401526001549190910416604090910152905084158015612365575083155b15612381578151602083015161237b9190613cea565b90955093505b5f5f6123966123908589613dad565b84613e40565b915091505f5f6123af6123a9878a613dad565b86613e40565b915091505f6123c48b88885f01518888613f27565b885191975095509091506123dd908c9089908686613f27565b918852935091506123ee858461413c565b60808901526123fd848361413c565b60a0890152612438846124108784615bcd565b61241a9190615bcd565b87518490612429908790615bcd565b6124339190615bcd565b61414b565b60c0890152855181101561244a578086525b6124558c601061415a565b8860200181815250506124698c602061415a565b60408901526124798c603061415a565b60608901525050505060e0840195909552610100830193909352509081529392505050565b7f9b779b17422d0df92223018b32b4d1fa46e071723d6817e2486d003becc55f005c156124f7576040517f3ee5aeb500000000000000000000000000000000000000000000000000000000815260040160405180910390fd5b6122e960017f9b779b17422d0df92223018b32b4d1fa46e071723d6817e2486d003becc55f005b906141ee565b61254560405180606001604052805f81526020015f81526020015f81525090565b815160208301518082036125b5576040517f08c379a000000000000000000000000000000000000000000000000000000000815260206004820152601460248201527f506f6f6c4c6f6769633a2053414d455f5349444500000000000000000000000060448201526064016107bf565b8115806125c25750601082145b806125cd5750602082145b806125d85750603082145b61263e576040517f08c379a000000000000000000000000000000000000000000000000000000000815260206004820152601a60248201527f506f6f6c4c6f6769633a20494e56414c49445f534944455f494e00000000000060448201526064016107bf565b80158061264b5750601081145b806126565750602081145b806126615750603081145b6126c7576040517f08c379a000000000000000000000000000000000000000000000000000000000815260206004820152601b60248201527f506f6f6c4c6f6769633a20494e56414c49445f534944455f4f5554000000000060448201526064016107bf565b5f60405180606001604052806126e08860400151613e98565b81525f80547bffffffffffffffffffffffffffffffffffffffffffffffffffffffff640100000000918290048116602085015260015491909104166040909201919091529091508080612735898588886141f5565b60408b0152865160a08d015193965091945092508390038290039015612809575f5463ffffffff9081164203168015612807575f612777828d60a001516142ec565b90505f61278e868368010000000000000000614318565b90505f6127a5868468010000000000000000614318565b9050868210806127b457508581105b15612803576127c482600161414b565b96506127d181600161414b565b5f80547fffffffffffffffffffffffffffffffffffffffffffffffffffffffff00000000164263ffffffff1617905595505b5050505b505b60c08a015115612914575f82841161282357838303612827565b8284035b905060018111156129125785516001547fffffffffffffffffffffffffffffffffffffffffffffffffffffffffffffffff9092019163ffffffff908116420316801561290f575f61288360018f60c00151901c84888a01614318565b90505f61289083836142ec565b9050600185901c6128ab818368010000000000000000614318565b808203911461290b57878911156128ca579788900397968701966128d4565b9788019796879003965b6001805463ffffffff8082168701167fffffffffffffffffffffffffffffffffffffffffffffffffffffffff000000009091161790555b5050505b50505b505b7f0000000000000000000000000000000000000000000000000000000000000000156129b5575f7f0000000000000000000000000000000000000000000000000000000000000000828486895f01510303038161297357612973615b8d565b04905080156129b3576129ab8b604001517f00000000000000000000000000000000000000000000000000000000000000008361343d565b855181900386525b505b505f886040015173ffffffffffffffffffffffffffffffffffffffff1663dc0192e86040518060800160405280878152602001885f01518152602001868152602001858152508b606001516040518363ffffffff1660e01b8152600401612a1d929190615be0565b606060405180830381865afa158015612a38573d5f5f3e3d5ffd5b505050506040513d601f19601f82011682018060405250810190612a5c9190615c1f565b90507bffffffffffffffffffffffffffffffffffffffffffffffffffffffff801681602001511115612aea576040517f08c379a000000000000000000000000000000000000000000000000000000000815260206004820152601c60248201527f506f6f6c4c6f6769633a205354415445315f4f564552464c4f575f410000000060448201526064016107bf565b60408101517bffffffffffffffffffffffffffffffffffffffffffffffffffffffff1015612b74576040517f08c379a000000000000000000000000000000000000000000000000000000000815260206004820152601c60248201527f506f6f6c4c6f6769633a205354415445315f4f564552464c4f575f420000000060448201526064016107bf565b5f5f612b808684613e40565b909250905088612c1557848210158015612b9a5750838110155b612c00576040517f08c379a000000000000000000000000000000000000000000000000000000000815260206004820152601b60248201527f506f6f6c4c6f6769633a20494e56414c49445f5354415445315f52000000000060448201526064016107bf565b86518351612c0e9190615bcd565b8a52612ece565b825187511015612c81576040517f08c379a000000000000000000000000000000000000000000000000000000000815260206004820152601c60248201527f506f6f6c4c6f6769633a20494e56414c49445f5354415445315f4e520000000060448201526064016107bf565b5f612c8b8a614373565b905060108a03612d1a5784821015612cff576040517f08c379a000000000000000000000000000000000000000000000000000000000815260206004820152601b60248201527f506f6f6c4c6f6769633a20494e56414c49445f5354415445315f41000000000060448201526064016107bf565b612d1381612d0d8589615bcd565b88614318565b8b52612e5d565b85831015612d84576040517f08c379a000000000000000000000000000000000000000000000000000000000815260206004820152601c60248201527f506f6f6c4c6f6769633a20494e56414c49445f5354415445315f4e410000000060448201526064016107bf565b60208a03612da057612d1381612d9a8488615bcd565b87614318565b84821015612e0a576040517f08c379a000000000000000000000000000000000000000000000000000000000815260206004820152601c60248201527f506f6f6c4c6f6769633a20494e56414c49445f5354415445315f4e420000000060448201526064016107bf565b5f85878a5f0151612e1b9190615bcd565b612e259190615bcd565b90505f8385875f0151612e389190615bcd565b612e429190615bcd565b9050612e5883612e528385615bcd565b84614318565b8d5250505b8a5181036103e81115612ecc576040517f08c379a000000000000000000000000000000000000000000000000000000000815260206004820152601960248201527f506f6f6c4c6f6769633a204d494e494d554d5f535550504c590000000000000060448201526064016107bf565b505b87612eeb5782518751612ee19190615bcd565b60208b015261312e565b60308803612fc2575f8486895f0151612f049190615bcd565b612f0e9190615bcd565b90505f8284865f0151612f219190615bcd565b612f2b9190615bcd565b90506103e8811015612f99576040517f08c379a000000000000000000000000000000000000000000000000000000000815260206004820152601c60248201527f506f6f6c4c6f6769633a204d494e494d554d5f524553455256455f430000000060448201526064016107bf565b612fb5612fa58b614373565b612faf8484615bcd565b846143ed565b60208d01525061312e9050565b6010880361305c576103e8821015613036576040517f08c379a000000000000000000000000000000000000000000000000000000000815260206004820152601c60248201527f506f6f6c4c6f6769633a204d494e494d554d5f524553455256455f410000000060448201526064016107bf565b61305261304289614373565b61304c8785615bcd565b876143ed565b60208b01526130ea565b6103e88110156130c8576040517f08c379a000000000000000000000000000000000000000000000000000000000815260206004820152601c60248201527f506f6f6c4c6f6769633a204d494e494d554d5f524553455256455f420000000060448201526064016107bf565b6130e46130d489614373565b6130de8684615bcd565b866143ed565b60208b01525b7001000000000000000000000000000000008c61014001511461312e5761312b8a5f01517001000000000000000000000000000000008e6101400151614318565b8a525b505060208101515f805463ffffffff9081166401000000007bffffffffffffffffffffffffffffffffffffffffffffffffffffffff948516810291909117909255604090930151600180549094169216021790555094979650505050505050565b5f61319b826014615aa9565b83511015613205576040517f08c379a000000000000000000000000000000000000000000000000000000000815260206004820152601560248201527f746f416464726573735f6f75744f66426f756e6473000000000000000000000060448201526064016107bf565b5001602001516c01000000000000000000000000900490565b6040805173ffffffffffffffffffffffffffffffffffffffff85811660248301528481166044830152606480830185905283518084039091018152608490920183526020820180517bffffffffffffffffffffffffffffffffffffffffffffffffffffffff167f23b872dd0000000000000000000000000000000000000000000000000000000017905291515f928392908816916132bc9190615c5a565b5f604051808303815f865af19150503d805f81146132f5576040519150601f19603f3d011682016040523d82523d5f602084013e6132fa565b606091505b50915091508180156133245750805115806133245750808060200190518101906133249190615c70565b6133b0576040517f08c379a000000000000000000000000000000000000000000000000000000000815260206004820152603160248201527f5472616e7366657248656c7065723a3a7472616e7366657246726f6d3a20747260448201527f616e7366657246726f6d206661696c656400000000000000000000000000000060648201526084016107bf565b505050505050565b5f4283116133c7575080613436565b60e08401514284039081106133df575f915050613436565b5f818660e00151039050856101000151811015613410578561010001518185028161340c5761340c615b8d565b0493505b613431848761012001517001000000000000000000000000000000006143ed565b925050505b9392505050565b6040805173ffffffffffffffffffffffffffffffffffffffff8481166024830152604480830185905283518084039091018152606490920183526020820180517bffffffffffffffffffffffffffffffffffffffffffffffffffffffff167fa9059cbb0000000000000000000000000000000000000000000000000000000017905291515f928392908716916134d39190615c5a565b5f604051808303815f865af19150503d805f811461350c576040519150601f19603f3d011682016040523d82523d5f602084013e613511565b606091505b509150915081801561353b57508051158061353b57508080602001905181019061353b9190615c70565b6135c7576040517f08c379a000000000000000000000000000000000000000000000000000000000815260206004820152602d60248201527f5472616e7366657248656c7065723a3a736166655472616e736665723a20747260448201527f616e73666572206661696c65640000000000000000000000000000000000000060648201526084016107bf565b5050505050565b6122e95f7f9b779b17422d0df92223018b32b4d1fa46e071723d6817e2486d003becc55f0061251e565b60408051600481526024810182526020810180517bffffffffffffffffffffffffffffffffffffffffffffffffffffffff167f3850c7bd0000000000000000000000000000000000000000000000000000000017905290515f91908290819073ffffffffffffffffffffffffffffffffffffffff86169061367a908590615c5a565b5f60405180830381855afa9150503d805f81146136b2576040519150601f19603f3d011682016040523d82523d5f602084013e6136b7565b606091505b509092509050816136ca57805160208201fd5b60200151949350505050565b5f5f8263ffffffff165f03613747576040517f08c379a000000000000000000000000000000000000000000000000000000000815260206004820152600260248201527f425000000000000000000000000000000000000000000000000000000000000060448201526064016107bf565b6040805160028082526060820183525f9260208301908036833701905050905083815f8151811061377a5761377a615c8f565b602002602001019063ffffffff16908163ffffffff16815250505f816001815181106137a8576137a8615c8f565b602002602001019063ffffffff16908163ffffffff16815250505f5f8673ffffffffffffffffffffffffffffffffffffffff1663883bdbfd846040518263ffffffff1660e01b81526004016137fd9190615cbc565b5f60405180830381865afa158015613817573d5f5f3e3d5ffd5b505050506040513d5f823e601f3d9081017fffffffffffffffffffffffffffffffffffffffffffffffffffffffffffffffe016820160405261385c9190810190615d68565b915091505f825f8151811061387357613873615c8f565b60200260200101518360018151811061388e5761388e615c8f565b60200260200101516138a09190615e2a565b90505f825f815181106138b5576138b5615c8f565b6020026020010151836001815181106138d0576138d0615c8f565b60200260200101516138e29190615e6f565b90506138f463ffffffff891683615e9b565b96505f8260060b128015613919575061391363ffffffff891683615f0e565b60060b15155b1561392c578661392881615f2f565b9750505b5f61395173ffffffffffffffffffffffffffffffffffffffff63ffffffff8b16615f8b565b905061397b77ffffffffffffffffffffffffffffffffffffffff00000000602084901b1682615ff5565b96505050505050509250929050565b5f5f5f8360020b1261399f578260020b6139a6565b8260020b5f035b9050620d89e88111156139e5576040517f2bc80f3a00000000000000000000000000000000000000000000000000000000815260040160405180910390fd5b5f816001165f03613a0757700100000000000000000000000000000000613a19565b6ffffcb933bd6fad37aa2d162d1a5940015b70ffffffffffffffffffffffffffffffffff1690506002821615613a4d576ffff97272373d413259a46990580e213a0260801c5b6004821615613a6c576ffff2e50f5f656932ef12357cf3c7fdcc0260801c5b6008821615613a8b576fffe5caca7e10e4e61c3624eaa0941cd00260801c5b6010821615613aaa576fffcb9843d60f6159c9db58835c9266440260801c5b6020821615613ac9576fff973b41fa98c081472e6896dfb254c00260801c5b6040821615613ae8576fff2ea16466c96a3843ec78b326b528610260801c5b6080821615613b07576ffe5dee046a99a2a811c461f1969c30530260801c5b610100821615613b27576ffcbe86c7900a88aedcffc83b479aa3a40260801c5b610200821615613b47576ff987a7253ac413176f2b074cf7815e540260801c5b610400821615613b67576ff3392b0822b70005940c7a398e4b70f30260801c5b610800821615613b87576fe7159475a2c29b7443b29c7fa6e889d90260801c5b611000821615613ba7576fd097f3bdfd2022b8845ad8f792aa58250260801c5b612000821615613bc7576fa9f746462d870fdf8a65dc1f90e061e50260801c5b614000821615613be7576f70d869a156d2a1b890bb3df62baf32f70260801c5b618000821615613c07576f31be135f97d08fd981231505542fcfa60260801c5b62010000821615613c28576f09aa508b5b7a84e1c677de54f3e99bc90260801c5b62020000821615613c48576e5d6af8dedb81196699c329225ee6040260801c5b62040000821615613c67576d2216e584f5fa1ea926041bedfe980260801c5b62080000821615613c84576b048a170391f7dc42444e8fa20260801c5b5f8460020b1315613cc257807fffffffffffffffffffffffffffffffffffffffffffffffffffffffffffffffff81613cbe57613cbe615b8d565b0490505b640100000000810615613cd6576001613cd8565b5f5b60ff16602082901c0192505050919050565b5f8073ffffffffffffffffffffffffffffffffffffffff8416613d1957613d10836115f9565b91509150613da6565b6040517f7a33e3b00000000000000000000000000000000000000000000000000000000081526004810184905273ffffffffffffffffffffffffffffffffffffffff851690637a33e3b09060240160408051808303815f875af1158015613d82573d5f5f3e3d5ffd5b505050506040513d601f19601f82011682018060405250810190613d109190616044565b9250929050565b60808201515f908281108015613dc1579092905b613dea613de070010000000000000000000000000000000086856143ed565b86606001516144b6565b9250825f03613e0557613e028483876060015161453c565b92505b8015613e3857613e35837fffffffffffffffffffffffffffffffffffffffffffffffffffffffffffffffff615bba565b92505b505092915050565b5f5f613e54848460200151855f0151614584565b9150613e8f613e83857fffffffffffffffffffffffffffffffffffffffffffffffffffffffffffffffff615bba565b60408501518551614584565b90509250929050565b6040517f70a082310000000000000000000000000000000000000000000000000000000081523060048201525f9073ffffffffffffffffffffffffffffffffffffffff8316906370a08231906024015b602060405180830381865afa158015613f03573d5f5f3e3d5ffd5b505050506040513d601f19601f820116820180604052508101906103fb9190615a65565b5f80808084613f368789615bcd565b613f409190615bcd565b60a089015190915015613fe0575f8054613f609063ffffffff1642616066565b63ffffffff1690508015613fde575f613f7d828b60a001516142ec565b90505f613f94898368010000000000000000614318565b90505f613fab898468010000000000000000614318565b905089821080613fba57508881105b15613fda57613fca82600161414b565b9950613fd781600161414b565b98505b5050505b505b60c0880151156140e3575f85871161400157613ffc8787615bcd565b61400b565b61400b8688615bcd565b905060018111156140e15761401f81616082565b6001549091505f906140379063ffffffff1642616066565b63ffffffff16905080156140df5760c08a01515f906140639060011c8b61405e8b8d615aa9565b614318565b90505f61407083836142ec565b9050600184901c61408b818368010000000000000000614318565b6140959082615bcd565b905080156140db57898b11156140c2576140af818b615aa9565b99506140bb818c615bcd565b9a506140db565b6140cc818c615aa9565b9a506140d8818b615bcd565b99505b5050505b505b505b881561412c575f8982876140f78a8c615bcd565b6141019190615bcd565b61410b9190615bcd565b6141159190615bba565b9050801561412a576141278189615bcd565b97505b505b5094979396509194509192505050565b5f828218828410028218613436565b5f828218828411028218613436565b6040517fbd85b0390000000000000000000000000000000000000000000000000000000081523060a083901b1760048201525f9073ffffffffffffffffffffffffffffffffffffffff84169063bd85b03990602401602060405180830381865afa1580156141ca573d5f5f3e3d5ffd5b505050506040513d601f19601f820116820180604052508101906134369190615a65565b80825d5050565b5f5f5f5f5f5f61420e8a5f01518b602001515f1c613cea565b915091508082111561421c57905b601087148061422b5750602088145b156142535761423d8a82945084613dad565b9550614249868a613e40565b90955093506142de565b60208714806142625750601088145b156142745761423d8a83945084613dad565b6142818a83945084613dad565b955061428d868a613e40565b90955093505f61429d8b83613dad565b90505f5f6142ab838d613e40565b90925090506142ba8183615aa9565b6142c4888a615aa9565b11156142da579197509550935091506142e19050565b5050505b50505b945094509450949050565b5f8061430d6142ff84604087901b615bba565b614308906160b6565b6145e5565b600f0b949350505050565b5f6143248484846143ed565b90505f828061433557614335615b8d565b8486091115613436577fffffffffffffffffffffffffffffffffffffffffffffffffffffffffffffffff8110614369575f5ffd5b6001019392505050565b6040517fbd85b0390000000000000000000000000000000000000000000000000000000081523060a083901b1760048201525f907f000000000000000000000000000000000000000000000000000000000000000073ffffffffffffffffffffffffffffffffffffffff169063bd85b03990602401613ee8565b5f80807fffffffffffffffffffffffffffffffffffffffffffffffffffffffffffffffff858709858702925082811083820303915050805f03614440575f8411614435575f5ffd5b508290049050613436565b80841161444b575f5ffd5b5f848688095f868103871696879004966002600389028118808a02820302808a02820302808a02820302808a02820302808a02820302808a02909103029181900381900460010186841190950394909402919094039290920491909117919091029150509392505050565b5f5f82600116116144d8577001000000000000000000000000000000006144da565b825b9050600182901c91505b81156103fb5761450683847001000000000000000000000000000000006143ed565b925060018216156145305761452d81847001000000000000000000000000000000006143ed565b90505b600182901c91506144e4565b7001000000000000000000000000000000005b8115613436575f6145618286866143ed565b9050805f036145705750613436565b90508061457c83616082565b92505061454f565b5f6145a183857001000000000000000000000000000000006143ed565b9050600182901c811115613436575f6145cb84866f400000000000000000000000000000006143ed565b90505f6145d9848584614318565b90506134318185615bcd565b5f6840000000000000000082600f0b126145fd575f5ffd5b7fffffffffffffffffffffffffffffffffffffffffffffffc0000000000000000082600f0b121561462f57505f919050565b6f800000000000000000000000000000005f6780000000000000008416600f0b131561466c5770016a09e667f3bcc908b2fb1366ea957d3e0260801c5b5f8367400000000000000016600f0b1315614698577001306fe0a31b7152de8d5a46305c85edec0260801c5b5f8367200000000000000016600f0b13156146c4577001172b83c7d517adcdf7c8c50eb14a791f0260801c5b5f8367100000000000000016600f0b13156146f05770010b5586cf9890f6298b92b71842a983630260801c5b5f8367080000000000000016600f0b131561471c577001059b0d31585743ae7c548eb68ca417fd0260801c5b5f8367040000000000000016600f0b131561474857700102c9a3e778060ee6f7caca4f7a29bde80260801c5b5f8367020000000000000016600f0b13156147745770010163da9fb33356d84a66ae336dcdfa3f0260801c5b5f8367010000000000000016600f0b13156147a057700100b1afa5abcbed6129ab13ec11dc95430260801c5b5f83668000000000000016600f0b13156147cb5770010058c86da1c09ea1ff19d294cf2f679b0260801c5b5f83664000000000000016600f0b13156147f6577001002c605e2e8cec506d21bfc89a23a00f0260801c5b5f83662000000000000016600f0b131561482157700100162f3904051fa128bca9c55c31e5df0260801c5b5f83661000000000000016600f0b131561484c577001000b175effdc76ba38e31671ca9397250260801c5b5f83660800000000000016600f0b131561487757700100058ba01fb9f96d6cacd4b180917c3d0260801c5b5f83660400000000000016600f0b13156148a25770010002c5cc37da9491d0985c348c68e7b30260801c5b5f83660200000000000016600f0b13156148cd577001000162e525ee054754457d59952920260260801c5b5f83660100000000000016600f0b13156148f85770010000b17255775c040618bf4a4ade83fc0260801c5b5f836580000000000016600f0b1315614922577001000058b91b5bc9ae2eed81e9b7d4cfab0260801c5b5f836540000000000016600f0b131561494c57700100002c5c89d5ec6ca4d7c8acc017b7c90260801c5b5f836520000000000016600f0b13156149765770010000162e43f4f831060e02d839a9d16d0260801c5b5f836510000000000016600f0b13156149a057700100000b1721bcfc99d9f890ea069117630260801c5b5f836508000000000016600f0b13156149ca5770010000058b90cf1e6d97f9ca14dbcc16280260801c5b5f836504000000000016600f0b13156149f4577001000002c5c863b73f016468f6bac5ca2b0260801c5b5f836502000000000016600f0b1315614a1e57700100000162e430e5a18f6119e3c02282a50260801c5b5f836501000000000016600f0b1315614a48577001000000b1721835514b86e6d96efd1bfe0260801c5b5f8364800000000016600f0b1315614a7157700100000058b90c0b48c6be5df846c5b2ef0260801c5b5f8364400000000016600f0b1315614a9a5770010000002c5c8601cc6b9e94213c72737a0260801c5b5f8364200000000016600f0b1315614ac3577001000000162e42fff037df38aa2b219f060260801c5b5f8364100000000016600f0b1315614aec5770010000000b17217fba9c739aa5819f44f90260801c5b5f8364080000000016600f0b1315614b15577001000000058b90bfcdee5acd3c1cedc8230260801c5b5f8364040000000016600f0b1315614b3e57700100000002c5c85fe31f35a6a30da1be500260801c5b5f8364020000000016600f0b1315614b675770010000000162e42ff0999ce3541b9fffcf0260801c5b5f8364010000000016600f0b1315614b9057700100000000b17217f80f4ef5aadda455540260801c5b5f83638000000016600f0b1315614bb85770010000000058b90bfbf8479bd5a81b51ad0260801c5b5f83634000000016600f0b1315614be0577001000000002c5c85fdf84bd62ae30a74cc0260801c5b5f83632000000016600f0b1315614c0857700100000000162e42fefb2fed257559bdaa0260801c5b5f83631000000016600f0b1315614c30577001000000000b17217f7d5a7716bba4a9ae0260801c5b5f83630800000016600f0b1315614c5857700100000000058b90bfbe9ddbac5e109cce0260801c5b5f83630400000016600f0b1315614c805770010000000002c5c85fdf4b15de6f17eb0d0260801c5b5f83630200000016600f0b1315614ca8577001000000000162e42fefa494f1478fde050260801c5b5f83630100000016600f0b1315614cd05770010000000000b17217f7d20cf927c8e94c0260801c5b5f836280000016600f0b1315614cf7577001000000000058b90bfbe8f71cb4e4b33d0260801c5b5f836240000016600f0b1315614d1e57700100000000002c5c85fdf477b662b269450260801c5b5f836220000016600f0b1315614d455770010000000000162e42fefa3ae53369388c0260801c5b5f836210000016600f0b1315614d6c57700100000000000b17217f7d1d351a389d400260801c5b5f836208000016600f0b1315614d935770010000000000058b90bfbe8e8b2d3d4ede0260801c5b5f836204000016600f0b1315614dba577001000000000002c5c85fdf4741bea6e77e0260801c5b5f836202000016600f0b1315614de157700100000000000162e42fefa39fe95583c20260801c5b5f836201000016600f0b1315614e08577001000000000000b17217f7d1cfb72b45e10260801c5b5f8361800016600f0b1315614e2e57700100000000000058b90bfbe8e7cc35c3f00260801c5b5f8361400016600f0b1315614e545770010000000000002c5c85fdf473e242ea380260801c5b5f8361200016600f0b1315614e7a577001000000000000162e42fefa39f02b772c0260801c5b5f8361100016600f0b1315614ea05770010000000000000b17217f7d1cf7d83c1a0260801c5b5f8361080016600f0b1315614ec6577001000000000000058b90bfbe8e7bdcbe2e0260801c5b5f8361040016600f0b1315614eec57700100000000000002c5c85fdf473dea871f0260801c5b5f8361020016600f0b1315614f125770010000000000000162e42fefa39ef44d910260801c5b5f8361010016600f0b1315614f3857700100000000000000b17217f7d1cf79e9490260801c5b5f83608016600f0b1315614f5d5770010000000000000058b90bfbe8e7bce5440260801c5b5f83604016600f0b1315614f82577001000000000000002c5c85fdf473de6eca0260801c5b5f83602016600f0b1315614fa757700100000000000000162e42fefa39ef366f0260801c5b5f83601016600f0b1315614fcc577001000000000000000b17217f7d1cf79afa0260801c5b5f83600816600f0b1315614ff157700100000000000000058b90bfbe8e7bcd6d0260801c5b5f83600416600f0b13156150165770010000000000000002c5c85fdf473de6b20260801c5b5f83600216600f0b131561503b577001000000000000000162e42fefa39ef3580260801c5b5f83600116600f0b13156150605770010000000000000000b17217f7d1cf79ab0260801c5b600f83810b60401d603f03900b1c6f7fffffffffffffffffffffffffffffff8111156103fb575f5ffd5b60405180608001604052806151136040518061016001604052805f73ffffffffffffffffffffffffffffffffffffffff1681526020015f81526020015f73ffffffffffffffffffffffffffffffffffffffff1681526020015f81526020015f81526020015f81526020015f81526020015f81526020015f81526020015f81526020015f81525090565b815260200161515060405180606001604052805f73ffffffffffffffffffffffffffffffffffffffff168152602001606081526020015f81525090565b815260200161518d60405180606001604052805f73ffffffffffffffffffffffffffffffffffffffff168152602001606081526020015f81525090565b81526020016151ca60405180606001604052805f73ffffffffffffffffffffffffffffffffffffffff168152602001606081526020015f81525090565b905290565b6040518061012001604052806151fc60405180606001604052805f81526020015f81526020015f81525090565b81526020015f81526020015f81526020015f81526020015f81526020015f81526020015f81526020015f81526020015f81525090565b5f60208284031215615242575f5ffd5b81357fffffffff0000000000000000000000000000000000000000000000000000000081168114613436575f5ffd5b805173ffffffffffffffffffffffffffffffffffffffff1682526020810151602083015260408101516152bc604084018273ffffffffffffffffffffffffffffffffffffffff169052565b50606081015160608301526080810151608083015260a081015160a083015260c081015160c083015260e081015160e08301526101008101516101008301526101208101516101208301526101408101516101408301525050565b61016081016103fb8284615271565b7f4e487b71000000000000000000000000000000000000000000000000000000005f52604160045260245ffd5b6040516060810167ffffffffffffffff8111828210171561537657615376615326565b60405290565b6040516080810167ffffffffffffffff8111828210171561537657615376615326565b604051610160810167ffffffffffffffff8111828210171561537657615376615326565b604051601f82017fffffffffffffffffffffffffffffffffffffffffffffffffffffffffffffffe016810167ffffffffffffffff8111828210171561540a5761540a615326565b604052919050565b73ffffffffffffffffffffffffffffffffffffffff81168114615433575f5ffd5b50565b5f67ffffffffffffffff82111561544f5761544f615326565b50601f017fffffffffffffffffffffffffffffffffffffffffffffffffffffffffffffffe01660200190565b5f82601f83011261548a575f5ffd5b813561549d61549882615436565b6153c3565b8181528460208386010111156154b1575f5ffd5b816020850160208301375f918101602001919091529392505050565b5f606082840312156154dd575f5ffd5b6154e5615353565b905081356154f281615412565b8152602082013567ffffffffffffffff81111561550d575f5ffd5b6155198482850161547b565b602083015250604082013561552d81615412565b604082015292915050565b5f5f60408385031215615549575f5ffd5b823567ffffffffffffffff81111561555f575f5ffd5b830160808186031215615570575f5ffd5b61557861537c565b8135815260208083013590820152604082013561559481615412565b6040820152606082013567ffffffffffffffff8111156155b2575f5ffd5b6155be8782850161547b565b606083015250925050602083013567ffffffffffffffff8111156155e0575f5ffd5b6155ec858286016154cd565b9150509250929050565b5f81518084528060208401602086015e5f6020828601015260207fffffffffffffffffffffffffffffffffffffffffffffffffffffffffffffffe0601f83011685010191505092915050565b73ffffffffffffffffffffffffffffffffffffffff81511682525f60208201516060602085015261567660608501826155f6565b604093840151949093019390935250919050565b6020815261569c602082018351615271565b5f60208301516101c06101808401526156b96101e0840182615642565b905060408401517fffffffffffffffffffffffffffffffffffffffffffffffffffffffffffffffe0848303016101a08501526156f58282615642565b91505060608401517fffffffffffffffffffffffffffffffffffffffffffffffffffffffffffffffe0848303016101c0850152613e358282615642565b5f60208284031215615742575f5ffd5b5035919050565b5f67ffffffffffffffff82111561576257615762615326565b5060051b60200190565b5f82601f83011261577b575f5ffd5b813561578961549882615749565b8082825260208201915060208360051b8601019250858311156157aa575f5ffd5b602085015b838110156157c75780358352602092830192016157af565b5095945050505050565b5f5f5f5f5f60a086880312156157e5575f5ffd5b85356157f081615412565b9450602086013561580081615412565b9350604086013567ffffffffffffffff81111561581b575f5ffd5b6158278882890161576c565b935050606086013567ffffffffffffffff811115615843575f5ffd5b61584f8882890161576c565b925050608086013567ffffffffffffffff81111561586b575f5ffd5b6158778882890161547b565b9150509295509295909350565b5f5f8284036080811215615896575f5ffd5b60608112156158a3575f5ffd5b506158ac615353565b8335815260208085013590820152604080850135908201529150606083013567ffffffffffffffff8111156155e0575f5ffd5b5f5f604083850312156158f0575f5ffd5b82356158fb81615412565b9150602083013561590b81615412565b809150509250929050565b602081525f61343660208301846155f6565b5f5f5f5f6080858703121561593b575f5ffd5b843561594681615412565b966020860135965060408601359560600135945092505050565b5f5f5f5f5f60a08688031215615974575f5ffd5b853561597f81615412565b9450602086013561598f81615412565b93506040860135925060608601359150608086013567ffffffffffffffff81111561586b575f5ffd5b80516159c381615412565b919050565b5f6101608284031280156159da575f5ffd5b506159e361539f565b6159ec836159b8565b815260208381015190820152615a04604084016159b8565b6040820152606083810151908201526080808401519082015260a0808401519082015260c0808401519082015260e0808401519082015261010080840151908201526101208084015190820152610140928301519281019290925250919050565b5f60208284031215615a75575f5ffd5b5051919050565b7f4e487b71000000000000000000000000000000000000000000000000000000005f52601160045260245ffd5b808201808211156103fb576103fb615a7c565b604081525f615ace60408301856155f6565b90508260208301529392505050565b5f60208284031215615aed575f5ffd5b815161343681615412565b5f60208284031215615b08575f5ffd5b815167ffffffffffffffff811115615b1e575f5ffd5b8201601f81018413615b2e575f5ffd5b8051615b3c61549882615436565b818152856020838501011115615b50575f5ffd5b8160208401602083015e5f91810160200191909152949350505050565b5f60208284031215615b7d575f5ffd5b815160ff81168114613436575f5ffd5b7f4e487b71000000000000000000000000000000000000000000000000000000005f52601260045260245ffd5b5f82615bc857615bc8615b8d565b500490565b818103818111156103fb576103fb615a7c565b8251815260208301516020820152604083015160408201526060830151606082015260a060808201525f615c1760a08301846155f6565b949350505050565b5f6060828403128015615c30575f5ffd5b50615c39615353565b82518152602080840151908201526040928301519281019290925250919050565b5f82518060208501845e5f920191825250919050565b5f60208284031215615c80575f5ffd5b81518015158114613436575f5ffd5b7f4e487b71000000000000000000000000000000000000000000000000000000005f52603260045260245ffd5b602080825282518282018190525f918401906040840190835b81811015615cf957835163ffffffff16835260209384019390920191600101615cd5565b509095945050505050565b5f82601f830112615d13575f5ffd5b8151615d2161549882615749565b8082825260208201915060208360051b860101925085831115615d42575f5ffd5b602085015b838110156157c7578051615d5a81615412565b835260209283019201615d47565b5f5f60408385031215615d79575f5ffd5b825167ffffffffffffffff811115615d8f575f5ffd5b8301601f81018513615d9f575f5ffd5b8051615dad61549882615749565b8082825260208201915060208360051b850101925087831115615dce575f5ffd5b6020840193505b82841015615dfe5783518060060b8114615ded575f5ffd5b825260209384019390910190615dd5565b80955050505050602083015167ffffffffffffffff811115615e1e575f5ffd5b6155ec85828601615d04565b600682810b9082900b037fffffffffffffffffffffffffffffffffffffffffffffffffff800000000000008112667fffffffffffff821317156103fb576103fb615a7c565b73ffffffffffffffffffffffffffffffffffffffff82811682821603908111156103fb576103fb615a7c565b5f8160060b8360060b80615eb157615eb1615b8d565b7fffffffffffffffffffffffffffffffffffffffffffffffffffffffffffffffff81147fffffffffffffffffffffffffffffffffffffffffffffffffff8000000000000083141615615f0557615f05615a7c565b90059392505050565b5f8260060b80615f2057615f20615b8d565b808360060b0791505092915050565b5f8160020b7fffffffffffffffffffffffffffffffffffffffffffffffffffffffffff8000008103615f6357615f63615a7c565b7fffffffffffffffffffffffffffffffffffffffffffffffffffffffffffffffff0192915050565b5f77ffffffffffffffffffffffffffffffffffffffffffffffff821677ffffffffffffffffffffffffffffffffffffffffffffffff841677ffffffffffffffffffffffffffffffffffffffffffffffff8183021692508183048114821517613e3857613e38615a7c565b5f77ffffffffffffffffffffffffffffffffffffffffffffffff83168061601e5761601e615b8d565b8077ffffffffffffffffffffffffffffffffffffffffffffffff84160491505092915050565b5f5f60408385031215616055575f5ffd5b505080516020909101519092909150565b63ffffffff82811682821603908111156103fb576103fb615a7c565b5f8161609057616090615a7c565b507fffffffffffffffffffffffffffffffffffffffffffffffffffffffffffffffff0190565b5f81600f0b7fffffffffffffffffffffffffffffffff8000000000000000000000000000000081036160ea576160ea615a7c565b5f039291505056fea164736f6c634300081c000a",
  "linkReferences": {},
  "deployedLinkReferences": {}
}